EDI_DC40  8000000000003261888740 3012  ZKFBC_NFE_200                                               ZKFBC_NFE_OUT_200                                SAPKFQ    LS  KFQCLNT800                                                                                           TFC01     LS  TFC01                                                                                                20191209172849                                                                                                                20191209172849     
ZKFBC_NFE_200_IDE000          8000000000003261888000001000000013560773642Venda merc.adq.receb.de terceiros                            55  70100091842019-12-092019-12-0915:41:18135503081142104.00                                                                                     0000006967                                                                                                     2019-12-09T15:41:18                         1194.00                                                                                                                                                                                                                                                                                                                                                                                                                                                                                                                                                                                                                                             
ZKFBC_NFE_200_EMIT000         80000000000032618880000020000000124492961000129           Invoiceware SP                                                                                                          956224310481                00674281                      3                                                                                                                                                                                                                                                                                                                                                                                                                                                                                                                                                                                                                                                                                                                                                                                                                           
ZKFBC_NFE_200_ENDEREMIT000    800000000000326188800000300000202R Guararapes                                                2064                                                                                                                    Casa verde                                                  3550308Sao Paulo                                                   SP045610041058Brasil                                                              00                                                                                                                                                                                                                                                                                                                                                                                                                                                                                                                                                                                                                                
ZKFBC_NFE_200_AVULSA000       800000000000326188800000400000001                                                                                                                                                                                                                                                                                                                                                                                                                                                                                                                                                                                                                                                                                                                                                                                                                                                                                                                                                                                                                                       
ZKFBC_NFE_200_DEST000         80000000000032618880000050000000124492961000129           Cliente BR 10726059000115                                                                                                                                                                                                                                                                                                                                                                                                                                                                                                                                                                                                                                                                                                                                                                                                                                                                                                                                                                                     
ZKFBC_NFE_200_ENDERDEST000    800000000000326188800000600000502Alameda Rio Negro                                           161                                                                                                                     N/D                                                         3550308Barueri                                                     SP064540001058Brasil                                                                    9                                                                                                                                                                                                                                                                                                                                                                                                                                                                                                                                                                                                                           
ZKFBC_NFE_200_RETIRADA000     800000000000326188800000700000001                                                                                                                                                                                                                                                                                                                                                                                                                                                                                                                                                                                                                                                                                                                                                                                                                                                                                                                                                                                                                                       
ZKFBC_NFE_200_ENTREGA000      800000000000326188800000800000001                                                                                                                                                                                                                                                                                                                                                                                                                                                                                                                                                                                                                                                                                                                                                                                                                                                                                                                                                                                                                                       
ZKFBC_NFE_200_DET000          800000000000326188800000900000002    1                                                                                                                                                                                                                                                                                                                                                                                                                                                                                                                     000010                                                                                                                                                                                                                                                                                                                                                                                                                                                                                                       
ZKFBC_NFE_200_PROD000         800000000000326188800001000000903CXPAPELAO                                                   SEM GTIN      CAIXA DE PAPELAO 210X140X140 MM                                                                                         40169300   5102PEÇ   1.000               100.000000            100.00          SEM GTIN      KG    1.000               100.000000                                                                            1CA-653267      000000000010                                          2806100  00000000000000                                                                                                                                                                                                                                                                                                                                                                                                                                                                                                                           
ZKFBC_NFE_200_MED000          800000000000326188800001100001004                                                               0.00 000010                                                                                                                                                                                                                                                                                                                                                                                                                                                                                                                                                                                                                                                                                                                                                                                                                                                                                                                                                             
ZKFBC_NFE_200_IMPOSTO000      800000000000326188800001200000903000010                                                                                                                                                                                                                                                                                                                                                                                                                                                                                                                                                                                                                                                                                                                                                                                                                                                                                                                                                                                                                                 
ZKFBC_NFE_200_ICMS000         800000000000326188800001300001204000010                                                                                                                                                                                                                                                                                                                                                                                                                                                                                                                                                                                                                                                                                                                                                                                                                                                                                                                                                                                                                                 
ZKFBC_NFE_200_ICMS40000       8000000000003261888000014000013050400.00             000010                                                                                                                                                                                                                                                                                                                                                                                                                                                                                                                                                                                                                                                                                                                                                                                                                                                                                                                                                                                                             
ZKFBC_NFE_200_IPI000          800000000000326188800001500001204     24492961000129                                                                      107000010                                                                                                                                                                                                                                                                                                                                                                                                                                                                                                                                                                                                                                                                                                                                                                                                                                                                                                                                     
ZKFBC_NFE_200_IPITRIB000      800000000000326188800001600001505500.00            0.00                                   0.00            000010                                                                                                                                                                                                                                                                                                                                                                                                                                                                                                                                                                                                                                                                                                                                                                                                                                                                                                                                                        
ZKFBC_NFE_200_PIS000          800000000000326188800001700001204000010                                                                                                                                                                                                                                                                                                                                                                                                                                                                                                                                                                                                                                                                                                                                                                                                                                                                                                                                                                                                                                 
ZKFBC_NFE_200_PISNT000        80000000000032618880000180000170508000010                                                                                                                                                                                                                                                                                                                                                                                                                                                                                                                                                                                                                                                                                                                                                                                                                                                                                                                                                                                                                               
ZKFBC_NFE_200_COFINS000       800000000000326188800001900001204000010                                                                                                                                                                                                                                                                                                                                                                                                                                                                                                                                                                                                                                                                                                                                                                                                                                                                                                                                                                                                                                 
ZKFBC_NFE_200_COFINSNT000     80000000000032618880000200000190508000010                                                                                                                                                                                                                                                                                                                                                                                                                                                                                                                                                                                                                                                                                                                                                                                                                                                                                                                                                                                                                               
ZKFBC_NFE_200_ITEMEXT000      800000000000326188800002100000903DetExtNroItem                                                                                                                                                                                                                                                 1                                                                                                                                                                                                                                                                                                                                                                                                                                                                                                                000010                                                                                                                                                                                                                                                  
ZKFBC_NFE_200_ITEMEXT000      800000000000326188800002200000903DetExtAFN_02                                                                                                                                                                                                                                               040                                                                                                                                                                                                                                                                                                                                                                                                                                                                                                                 000010                                                                                                                                                                                                                                                  
ZKFBC_NFE_200_ITEMEXT000      800000000000326188800002300000903DetExtAFN_03                                                                                                                                                                                                                                               40                                                                                                                                                                                                                                                                                                                                                                                                                                                                                                                  000010                                                                                                                                                                                                                                                  
ZKFBC_NFE_200_ITEMEXT000      800000000000326188800002400000903DetExtAFN_05                                                                                                                                                                                                                                               50                                                                                                                                                                                                                                                                                                                                                                                                                                                                                                                  000010                                                                                                                                                                                                                                                  
ZKFBC_NFE_200_ITEMEXT000      800000000000326188800002500000903DetExtNUE_06                                                                                                                                                                                                                                               50                                                                                                                                                                                                                                                                                                                                                                                                                                                                                                                  000010                                                                                                                                                                                                                                                  
ZKFBC_NFE_200_TOTAL000        800000000000326188800002600000001X                                                                                                                                                                                                                                                                                                                                                                                                                                                                                                                                                                                                                                                                                                                                                                                                                                                                                                                                                                                                                                      
ZKFBC_NFE_200_ICMSTOT000      8000000000003261888000027000026020.00            0.00            0.00            0.00            100.00          0.00            0.00            0.00            0.00            0.00            0.00            0.00            0.00            100.00                                                                                          0.00            0.00                            0.00                                                                                                                                                                                                                                                                                                                                                                                                                                                                                                                                                                                                                                                                   
ZKFBC_NFE_200_TRANSP000       8000000000003261888000028000000019                                                                                                                                                                                                                                                                                                                                                                                                                                                                                                                                                                                                                                                                                                                                                                                                                                                                                                                                                                                                                                      
ZKFBC_NFE_200_TRANSPORTA000   800000000000326188800002900002802                         DESTINATARIO                                                                                                                                                                                                                                                                                                                                                                                                                                                                                                                                                                                                                                                                                                                                                                                                                                                                                                                                                                                                  
ZKFBC_NFE_200_VOL000          80000000000032618880000300000280200001     VOLUMES                                                                                                                                                                             15000.000       15000.000                                                                                                                                                                                                                                                                                                                                                                                                                                                                                                                                                                                                                                                                                                                                                                                                                
ZKFBC_NFE_200_PAG000          800000000000326188800003100000002                                                                                                                                                                                                                                                                                                                                                                                                                                                                                                                                                                                                                                                                                                                                                                                                                                                                                                                                                                                                                                       
ZKFBC_NFE_400_DETPAG000       80000000000032618880000320000310399100.00                                                                                                                                                                                                                                                                                                                                                                                                                                                                                                                                                                                                                                                                                                                                                                                                                                                                                                                                                                                                                               
ZKFBC_NFE_200_INFADIC000      800000000000326188800003300000001X                                                                                                                                                                                                                                                                                                                                                                                                                                                                                                                                                                                                                                                                                                                                                                                                                                                                                                                                                                                                                                      
ZKFBC_NFE_200_INFCPL000       800000000000326188800003400003302  Isento ou não sujeito a ICMS  Cofins Operação sem Incidência da Contribuição L1 Cofins Operação sem Incidência da Contribuição L3 Cofins Operação sem Incidência da Contribuição L4  PIS Operação sem Incidência da Contribuição linha 2                                                                                                                                                                                                                                                                                                                                                                                                                                                                                                                                                                                                                                                                                                                                                                                             
ZKFBC_NFE_200_CABEXT000       800000000000326188800003500000002SYSTEM                                                                                                                                                                                                                                                     KFQ-2                                                                                                                                                                                                                                                                                                                                                                                                                                                                                                                                                                                                                                                                                                                                                                       
ZKFBC_TF_CONTROL000           8000000000003261888000036000000010000006967                                                  1    NFE                                                                                                                                                                                                                                                                                                                                                                                                                                                                                                                                                                                                                                                                                                                                                                                                                                                                                                                                                                   
