EDI_DC40  2300000000010544161740 3012  ZKFBC_AR_AUTHORIZE                                          ZKFBC_AR_OUT                                     SAPKFQ    LS  DR1CLNT230                                                                                           KFCBTF0001LS  TFCLIENT                                                                                             2019714105507                                                                                                                2019714105505      
ZKFBC_AR_AUTH000              23000000000105441610000010000000130681463999                                                                                                                                                                                                                                                                                                                                                                                                                                                                                                                                                                                                                                                                                                                                                                                                                                                                                                                                                                                                                             
ZKFBC_AR_CMP000               23000000000105441610000020000000100000000000000220197141900070007019 1N202Sovos Argentina (Rockwell)                                                                                                                                                                              30681463999AV. BERNARDO OHIGGINS                                                                                                                                                                                                                                                                                                                                         DOL       17.49000           400.00                                                                                             Prepayment Required                               DATShip to address     2                                                                                                                                                                                                   
ZKFBC_AR_ITEMS000             230000000001054416100000300000202HM2V24                                                       1.0007     400.000000          400.00   1                                                                                                                                                                                                                                                                                                                                                                                                                                                                                                                                                                                                                                                                                                                                                                                                                                                                                                                                  
ZKFBC_AR_PRO_DS000            230000000001054416100000400000303TERM BLCK Multi-Rail MTD LED IND                                                                                                                                                                                                                                                                                                                                                                                                                                                                                                                                                                                                                                                                                                                                                                                                                                                                                                                                                                                                  1     
ZKFBC_AR_ITEM_EXTENC000       230000000001054416100000500000303DetExtAFN_01                  0.00                                                                                                                                                                                                                                                           1                                                                                                                                                                                                                                                                                                                                                                                                                                                                                                                                                                                                                                                                                                                                          
ZKFBC_AR_ITEM_EXTENC000       230000000001054416100000600000303DetExtAFN_02                  400.000000                                                                                                                                                                                                                                                     1                                                                                                                                                                                                                                                                                                                                                                                                                                                                                                                                                                                                                                                                                                                                          
ZKFBC_AR_ITEM_EXTENC000       230000000001054416100000700000303DetExtAFN_05                  TERM BLCK Multi-Rail MTD LED IND                                                                                                                                                                                                                               1                                                                                                                                                                                                                                                                                                                                                                                                                                                                                                                                                                                                                                                                                                                                          
ZKFBC_AR_ITEM_EXTENC000       230000000001054416100000800000303DetExtAFN_04                  HM2V24                                                                                                                                                                                                                                                         1                                                                                                                                                                                                                                                                                                                                                                                                                                                                                                                                                                                                                                                                                                                                          
ZKFBC_AR_ITEM_EXTENC000       230000000001054416100000900000303DetExtAFN_06                  Chle_IWI_connection check                                                                                                                                                                                                                                      1                                                                                                                                                                                                                                                                                                                                                                                                                                                                                                                                                                                                                                                                                                                                          
ZKFBC_AR_CAB_EXTENC000        230000000001054416100001000000002CUIT                          30681463999                                                                                                                                                                                                                                                                                                                                                                                                                                                                                                                                                                                                                                                                                                                                                                                                                                                                                                                                                                                              
ZKFBC_AR_CAB_EXTENC000        230000000001054416100001100000002ING_BRUTO                     9011734223                                                                                                                                                                                                                                                                                                                                                                                                                                                                                                                                                                                                                                                                                                                                                                                                                                                                                                                                                                                                
ZKFBC_AR_CAB_EXTENC000        230000000001054416100001200000002INVOICE                       9351000532                                                                                                                                                                                                                                                                                                                                                                                                                                                                                                                                                                                                                                                                                                                                                                                                                                                                                                                                                                                                
ZKFBC_AR_CAB_EXTENC000        230000000001054416100001300000002NOME_BILLTO                   Test Bolivia1                                                                                                                                                                                                                                                                                                                                                                                                                                                                                                                                                                                                                                                                                                                                                                                                                                                                                                                                                                                             
ZKFBC_AR_CAB_EXTENC000        230000000001054416100001400000002ENDERECO_BILLTO               AV. BERNARDO OHIGGINS ,                                                                                                                                                                                                                                                                                                                                                                                                                                                                                                                                                                                                                                                                                                                                                                                                                                                                                                                                                                                   
ZKFBC_AR_CAB_EXTENC000        230000000001054416100001500000002ENDERECO_BILLTO2              NO CITY                                                                                                                                                                                                                                                                                                                                                                                                                                                                                                                                                                                                                                                                                                                                                                                                                                                                                                                                                                                                   
ZKFBC_AR_CAB_EXTENC000        230000000001054416100001600000002RUC_BILLTO                                                                                                                                                                                                                                                                                                                                                                                                                                                                                                                                                                                                                                                                                                                                                                                                                                                                                                                                                                                                                              
ZKFBC_AR_CAB_EXTENC000        230000000001054416100001700000002NOME_SHIPTO                   Test Bolivia1                                                                                                                                                                                                                                                                                                                                                                                                                                                                                                                                                                                                                                                                                                                                                                                                                                                                                                                                                                                             
ZKFBC_AR_CAB_EXTENC000        230000000001054416100001800000002ENDERECO_SHIPTO               AV. BERNARDO OHIGGINS ,                                                                                                                                                                                                                                                                                                                                                                                                                                                                                                                                                                                                                                                                                                                                                                                                                                                                                                                                                                                   
ZKFBC_AR_CAB_EXTENC000        230000000001054416100001900000002ENDERECO_SHIPTO2              NO CITY                                                                                                                                                                                                                                                                                                                                                                                                                                                                                                                                                                                                                                                                                                                                                                                                                                                                                                                                                                                                   
ZKFBC_AR_CAB_EXTENC000        230000000001054416100002000000002ENDERECO_SHIPTO3                                                                                                                                                                                                                                                                                                                                                                                                                                                                                                                                                                                                                                                                                                                                                                                                                                                                                                                                                                                                                        
ZKFBC_AR_CAB_EXTENC000        230000000001054416100002100000002NOME_CONS                     Test Bolivia1                                                                                                                                                                                                                                                                                                                                                                                                                                                                                                                                                                                                                                                                                                                                                                                                                                                                                                                                                                                             
ZKFBC_AR_CAB_EXTENC000        230000000001054416100002200000002ENDERECO_CONS                 AV. BERNARDO OHIGGINS ,                                                                                                                                                                                                                                                                                                                                                                                                                                                                                                                                                                                                                                                                                                                                                                                                                                                                                                                                                                                   
ZKFBC_AR_CAB_EXTENC000        230000000001054416100002300000002ENDERECO_CONS2                NO CITY                                                                                                                                                                                                                                                                                                                                                                                                                                                                                                                                                                                                                                                                                                                                                                                                                                                                                                                                                                                                   
ZKFBC_AR_CAB_EXTENC000        230000000001054416100002400000002ENDERECO_CONS3                                                                                                                                                                                                                                                                                                                                                                                                                                                                                                                                                                                                                                                                                                                                                                                                                                                                                                                                                                                                                          
ZKFBC_AR_CAB_EXTENC000        230000000001054416100002500000002MOEDA                         USD-Dólar americano                                                                                                                                                                                                                                                                                                                                                                                                                                                                                                                                                                                                                                                                                                                                                                                                                                                                                                                                                                                       
ZKFBC_AR_CAB_EXTENC000        230000000001054416100002600000002DELIVERY_TERMS                DAT Ship to address                                                                                                                                                                                                                                                                                                                                                                                                                                                                                                                                                                                                                                                                                                                                                                                                                                                                                                                                                                                       
ZKFBC_AR_CAB_EXTENC000        230000000001054416100002700000002ENDERECO_BILLTO3              Bolivia                                                                                                                                                                                                                                                                                                                                                                                                                                                                                                                                                                                                                                                                                                                                                                                                                                                                                                                                                                                                   
ZKFBC_AR_CAB_EXTENC000        230000000001054416100002800000002NOME_EMISSOR                  Rockwell Automation Argentina S.A.                                                                                                                                                                                                                                                                                                                                                                                                                                                                                                                                                                                                                                                                                                                                                                                                                                                                                                                                                                        
ZKFBC_AR_CAB_EXTENC000        230000000001054416100002900000002ENDERECO_EMISSOR              Av. Leandro N. Alem1050 - 5to Piso -  - C1001AAS                                                                                                                                                                                                                                                                                                                                                                                                                                                                                                                                                                                                                                                                                                                                                                                                                                                                                                                                                          
ZKFBC_AR_CAB_EXTENC000        230000000001054416100003000000002ENDERECO_EMISSOR2             C. Aut. de Bs.As -  - Argentina                                                                                                                                                                                                                                                                                                                                                                                                                                                                                                                                                                                                                                                                                                                                                                                                                                                                                                                                                                           
ZKFBC_AR_CAB_EXTENC000        230000000001054416100003100000002ENDERECO_EMISSOR3             Tel.: 5554-4000                                                                                                                                                                                                                                                                                                                                                                                                                                                                                                                                                                                                                                                                                                                                                                                                                                                                                                                                                                                           
ZKFBC_AR_CAB_EXTENC000        230000000001054416100003200000002ENDERECO_EMISSOR4             Fax :                                                                                                                                                                                                                                                                                                                                                                                                                                                                                                                                                                                                                                                                                                                                                                                                                                                                                                                                                                                                     
ZKFBC_AR_CAB_EXTENC000        230000000001054416100003300000002FECHA_FACTURA                 27/02/2019                                                                                                                                                                                                                                                                                                                                                                                                                                                                                                                                                                                                                                                                                                                                                                                                                                                                                                                                                                                                
ZKFBC_AR_CAB_EXTENC000        230000000001054416100003400000002VBRK-ZTERM                    0186                                                                                                                                                                                                                                                                                                                                                                                                                                                                                                                                                                                                                                                                                                                                                                                                                                                                                                                                                                                                      
ZKFBC_AR_CAB_EXTENC000        230000000001054416100003500000002CONDICION_IVA                 EXPORTACION                                                                                                                                                                                                                                                                                                                                                                                                                                                                                                                                                                                                                                                                                                                                                                                                                                                                                                                                                                                               
ZKFBC_AR_CAB_EXTENC000        230000000001054416100003600000002DUE_DATE                      27/02/2019                                                                                                                                                                                                                                                                                                                                                                                                                                                                                                                                                                                                                                                                                                                                                                                                                                                                                                                                                                                                
ZKFBC_AR_CAB_EXTENC000        230000000001054416100003700000002FORMA_PAGO                    Prepayment Required                                                                                                                                                                                                                                                                                                                                                                                                                                                                                                                                                                                                                                                                                                                                                                                                                                                                                                                                                                                       
ZKFBC_AR_CAB_EXTENC000        230000000001054416100003800000002MONEDA                        USD                                                                                                                                                                                                                                                                                                                                                                                                                                                                                                                                                                                                                                                                                                                                                                                                                                                                                                                                                                                                       
ZKFBC_AR_CAB_EXTENC000        230000000001054416100003900000002COMP_ORIGEN                   70008651                                                                                                                                                                                                                                                                                                                                                                                                                                                                                                                                                                                                                                                                                                                                                                                                                                                                                                                                                                                                  
ZKFBC_AR_CAB_EXTENC000        230000000001054416100004000000002LABEL_INVOICE                 RA No:                                                                                                                                                                                                                                                                                                                                                                                                                                                                                                                                                                                                                                                                                                                                                                                                                                                                                                                                                                                                    
ZKFBC_AR_CAB_EXTENC000        230000000001054416100004100000002ORDEN_COMPRA                  Chle_IWI_connection check                                                                                                                                                                                                                                                                                                                                                                                                                                                                                                                                                                                                                                                                                                                                                                                                                                                                                                                                                                                 
ZKFBC_AR_CAB_EXTENC000        230000000001054416100004200000002SALES_ORDER                                                                                                                                                                                                                                                                                                                                                                                                                                                                                                                                                                                                                                                                                                                                                                                                                                                                                                                                                                                                                             
ZKFBC_AR_CAB_EXTENC000        230000000001054416100004300000002SHIP_FROM                     CABA C. A.de Buenos Aires Argentina                                                                                                                                                                                                                                                                                                                                                                                                                                                                                                                                                                                                                                                                                                                                                                                                                                                                                                                                                                       
ZKFBC_AR_CAB_EXTENC000        230000000001054416100004400000002REMITO_NRO                                                                                                                                                                                                                                                                                                                                                                                                                                                                                                                                                                                                                                                                                                                                                                                                                                                                                                                                                                                                                              
ZKFBC_AR_CAB_EXTENC000        230000000001054416100004500000002SUBTOTAL                      400.00                                                                                                                                                                                                                                                                                                                                                                                                                                                                                                                                                                                                                                                                                                                                                                                                                                                                                                                                                                                                    
ZKFBC_AR_CAB_EXTENC000        230000000001054416100004600000002FLETE_TOTAL                   0.00                                                                                                                                                                                                                                                                                                                                                                                                                                                                                                                                                                                                                                                                                                                                                                                                                                                                                                                                                                                                      
ZKFBC_AR_CAB_EXTENC000        230000000001054416100004700000002TPO_CAMBIO_REF                17.4900                                                                                                                                                                                                                                                                                                                                                                                                                                                                                                                                                                                                                                                                                                                                                                                                                                                                                                                                                                                                   
ZKFBC_AR_CAB_EXTENC000        230000000001054416100004800000002DISCOUNT                      0.00                                                                                                                                                                                                                                                                                                                                                                                                                                                                                                                                                                                                                                                                                                                                                                                                                                                                                                                                                                                                      
ZKFBC_AR_CAB_EXTENC000        230000000001054416100004900000002Amt_words                     CUATROCIENTOS 00/100 dolares                                                                                                                                                                                                                                                                                                                                                                                                                                                                                                                                                                                                                                                                                                                                                                                                                                                                                                                                                                              
ZKFBC_AR_CAB_EXTENC000        230000000001054416100005000000002Actividades                   01/05/1995                                                                                                                                                                                                                                                                                                                                                                                                                                                                                                                                                                                                                                                                                                                                                                                                                                                                                                                                                                                                
ZKFBC_AR_CAB_EXTENC000        230000000001054416100005100000002Compliance_01                 Estos productos, tecnologia o software estan sujetos a las regulaciones de la Administracion de Exportaciones de los Estados Unidos. Desviaciones|contrarias a la Ley de Estados Unidos u otro control de exportacion relevante esta prohibido. No pueden                                                                                                                                                                                                                                                                                                                                                                                                                                                                                                                                                                                                                                                                                                                                                 
ZKFBC_AR_CAB_EXTENC000        230000000001054416100005200000002Compliance_02                 ser enviados a Cuba, Iran,|Republica de Sudan, Syria u otro pais donde el envio este prohibido; tampoco a usuario(s) final(es) que esten involucrados en actividades de desarrollo|de armamento quimico, biologico, nuclear o misiles                                                                                                                                                                                                                                                                                                                                                                                                                                                                                                                                                                                                                                                                                                                                                                     
ZKFBC_AR_CAB_EXTENC000        230000000001054416100005300000002Statement_01                  Si hubiera algún tipo de variación entre el tipo de cambio mencionado y el tipo de cambio Banco Nación, vendedor cierre mercado libre de cambios del d a h bil anterior al del pago, se proceder  a emitir la correspondiente Nota de D bito o Cr dito por                                                                                                                                                                                                                                                                                                                                                                                                                                                                                                                                                                                                                                                                                                                                                
ZKFBC_AR_CAB_EXTENC000        230000000001054416100005400000002Statement_02                  la diferencia.                                                                                                                                                                                                                                                                                                                                                                                                                                                                                                                                                                                                                                                                                                                                                                                                                                                                                                                                                                                            
ZKFBC_AR_CAB_EXTENC000        230000000001054416100005500000002StatementUSD_01               El importe de la presente factura se encuentra expresado en dólares E.E.U.U., según cotización del BNA (tipo cambio vendedor). A los fines impositivos (RG AFIP 1415), el tipo de cambio utilizado es de U$S 1,00=$        17.49000                                                                                                                                                                                                                                                                                                                                                                                                                                                                                                                                                                                                                                                                                                                                                                       
ZKFBC_AR_CAB_EXTENC000        230000000001054416100005600000002VBRK-VBELN                    9351000521                                                                                                                                                                                                                                                                                                                                                                                                                                                                                                                                                                                                                                                                                                                                                                                                                                                                                                                                                                                                
ZKFBC_AR_CAB_EXTENC000        230000000001054416100005700000002VBRK-FKART                    ZF2                                                                                                                                                                                                                                                                                                                                                                                                                                                                                                                                                                                                                                                                                                                                                                                                                                                                                                                                                                                                       
