EDI_DC40  1150000000026510374731 3012  ZKFBC_MX_INVOICE                                            ZKFBC_MX_OUT                                     SAPKFQ    LS  ZECS115                                                                                              ZKFBC00001LS  TFCLIENT                                                                                             20170821184127                                                                                                                20170821184127      
ZKFBC_MEX_HEADER000           1150000000026510374000001000000010000000001362019-04-15T12:41:2703                                                              Net 15 Days                                                     5.00                                               MXN5.00             I       PUE                                                             SD35003905005033                                                                                                                            44630                                                                                                                   0000                                                                                                                                                                                    3.3                                                                                                                                                                                                                                                           
ZKFBC_MEX_EMISSOR000          115000000002651037400000200000001BTM060817960        Brown-Forman Tequila Mexico S de RL de CV                                                                                                                                                                                                                                                                                                                                                                                                                                                                                                                                                                                                                                                                                                                                                                                                                                                                                                                                                                           
ZKFBC_MEX_EMISSOR_DF000       115000000002651037400000300000202Av. De las Americas                                              1545                     Piso 8                                                                                    Guadalajara                                                                               Guadalajara                                                      JAL                                                              Mexico                                                           44630                                                                                                                                                                                                                                                                                                                                                                                                                                                                                                                                                  
ZKFBC_MEX_EMISSOR_EX000       115000000002651037400000400000202Paseo del Norte 5100                                                                                               Technology Park, Zapopan                                         Pinar de la Venta                                                                                                                                          JAL                                                              Mexico                                                           45010                                                                                                                                                                                                                                                                                                                                                                                                                                                                                                                                                  
ZKFBC_MEX_REGIMENFISCAL000    115000000002651037400000500000202601                                                                                                                                                                                                                                                                                                                                                                                                                                                                                                                                                                                                                                                                                                                                                                                                                                                                                                                                                                                                                                     
ZKFBC_MEX_RECEPTOR000         115000000002651037400000600000001SIR030625UE0        Soluciones Integrales de Reciclado  SA de CV                                                                                                                                                                                                                                                                                                                                                                    G01                                                                                                                                                                                                                                                                                                                                                                                                                                                                                                                                                                                                 
ZKFBC_MEX_RECEPTOR_DF000      115000000002651037400000700000602Carretera a San Sebastian Num. 70                                                                                  Sta. Maria Tequepexpan                                                                                                                                     TLAQUEPAQUE                                                      JAL                                                              México                                                           45601                                                                                                                                                                                                                                                                                                                                                                                                                                                                                                                                                  
ZKFBC_MEX_ITEM000             1150000000026510374000008000000021            Pieza                    ZMS002            Venta de Desperducio con retencion Prueb                                                                                5.00             5.00             000010                 C6201010101ZMS002                                                                                                                                                                                                                                                                                                                                                                                                                                                                                                                                                                                                                                                                                                                                                                              
ZKFBC_MEX_ITEMEXT000          115000000002651037400000900000803DetExtAFN_01                                                                                                                                                                                                                                               MX                                                                                                                                                                                                                                                                                                                                                                                                                                                                                                                  000010                                                                                                                                                                                                                                                   
ZKFBC_MEX_ITEMEXT000          115000000002651037400001000000803DetExtAFN_08                                                                                                                                                                                                                                                                                                                                                                                                                                                                                                                                                                                                                                                                                                                                                             0.000 000010                                                                                                                                                                                                                                                   
ZKFBC_MEX_ITEMEXT000          115000000002651037400001100000803DetExtAFN_09                                                                                                                                                                                                                                                                                                                                                                                                                                                                                                                                                                                                                                                                                                                                                             0.000 000010                                                                                                                                                                                                                                                   
ZKFBC_MEX_ITEMEXT000          115000000002651037400001200000803DetExtAFN_13                                                                                                                                                                                                                                                                                                                                                                                                                                                                                                                                                                                                                                                                                                                                                                   000010                                                                                                                                                                                                                                                   
ZKFBC_MEX_ITEMEXT000          115000000002651037400001300000803DetExtAFN_12                                                                                                                                                                                                                                                                                                                                                                                                                                                                                                                                                                                                                                                                                                                                                                   000010                                                                                                                                                                                                                                                   
ZKFBC_MEX_ITEMEXT000          115000000002651037400001400000803Port_Departure                                                                                                                                                                                                                                                                                                                                                                                                                                                                                                                                                                                                                                                                                                                                                                 000010                                                                                                                                                                                                                                                   
ZKFBC_MEX_ITEMEXT000          115000000002651037400001500000803Port_Destination                                                                                                                                                                                                                                                                                                                                                                                                                                                                                                                                                                                                                                                                                                                                                               000010                                                                                                                                                                                                                                                   
ZKFBC_MEX_ITEMEXT000          115000000002651037400001600000803Port_Destination                                                                                                                                                                                                                                                                                                                                                                                                                                                                                                                                                                                                                                                                                                                                                               000010                                                                                                                                                                                                                                                   
ZKFBC_MEX_ITEMEXT000          115000000002651037400001700000803Comment2                                                                                                                                                                                                                                                                                                                                                                                                                                                                                                                                                                                                                                                                                                                                                                       000010                                                                                                                                                                                                                                                   
ZKFBC_MEX_ITEMEXT000          115000000002651037400001800000803Comment3                                                                                                                                                                                                                                                                                                                                                                                                                                                                                                                                                                                                                                                                                                                                                                       000010                                                                                                                                                                                                                                                   
ZKFBC_MEX_ITEMEXT000          115000000002651037400001900000803Comment4                                                                                                                                                                                                                                                                                                                                                                                                                                                                                                                                                                                                                                                                                                                                                                       000010                                                                                                                                                                                                                                                   
ZKFBC_MEX_ITEM_TR000          115000000002651037400002000000803            0.80 Tasa       0.160000 002                          5.00 000010                                                                                                                                                                                                                                                                                                                                                                                                                                                                                                                                                                                                                                                                                                                                                                                                                                                                                                                                                           
ZKFBC_MEX_ITEM_RE000          115000000002651037400002100000803            0.80 Tasa       0.160000 002                          5.00 000010                                                                                                                                                                                                                                                                                                                                                                                                                                                                                                                                                                                                                                                                                                                                                                                                                                                                                                                                                           
ZKFBC_MEX_TAX000              1150000000026510374000022000000010.80             0.80                                                                                                                                                                                                                                                                                                                                                                                                                                                                                                                                                                                                                                                                                                                                                                                                                                                                                                                                                                                                                   
ZKFBC_MEX_TAX_RT000           115000000002651037400002300002202002            0.80                                                                                                                                                                                                                                                                                                                                                                                                                                                                                                                                                                                                                                                                                                                                                                                                                                                                                                                                                                                                                     
ZKFBC_MEX_TAX_TS000           115000000002651037400002400002202002             0.160000        0.80             Tasa       0.160000                                                                                                                                                                                                                                                                                                                                                                                                                                                                                                                                                                                                                                                                                                                                                                                                                                                                                                                                                                    
ZKFBC_MEX_CABEXT000           115000000002651037400002500000002DOCNUM                                                                                                                                                                                                                                                     SD35003905005033                                                                                                                                                                                                                                                                                                                                                                                                                                                                                                                                                                                                                                                                                                                                                             
ZKFBC_MEX_CABEXT000           115000000002651037400002600000002REGIMENFISCAL                                                                                                                                                                                                                                              REGIMEN GENERAL DE LA LEY DE PERSONAS MORALES                                                                                                                                                                                                                                                                                                                                                                                                                                                                                                                                                                                                                                                                                                                                
ZKFBC_MEX_CABEXT000           115000000002651037400002700000002                                                                                                                                                                                                                                                                                                                                                                                                                                                                                                                                                                                                                                                                                                                                                                                                                                                                                                                                                                                                                                        
ZKFBC_MEX_CABEXT000           115000000002651037400002800000002Rec_Code                                                                                                                                                                                                                                                   0001009293                                                                                                                                                                                                                                                                                                                                                                                                                                                                                                                                                                                                                                                                                                                                                                   
ZKFBC_MEX_CABEXT000           115000000002651037400002900000002Rec_Ad                                                                                                                                                                                                                                                     Soluciones Integrales de Reciclado                                                                                                                                                                                                                                                                                                                                                                                                                                                                                                                                                                                                                                                                                                                                           
ZKFBC_MEX_CABEXT000           115000000002651037400003000000002Rec_Ad                                                                                                                                                                                                                                                      S.A. de C.V.                                                                                                                                                                                                                                                                                                                                                                                                                                                                                                                                                                                                                                                                                                                                                                
ZKFBC_MEX_CABEXT000           115000000002651037400003100000002Cond_Pagto                                                                                                                                                                                                                                                 Net 15 Days                                                                                                                                                                                                                                                                                                                                                                                                                                                                                                                                                                                                                                                                                                                                                                  
ZKFBC_MEX_CABEXT000           115000000002651037400003200000002CANT_TTAL_MAT                                                                                                                                                                                                                                              1                                                                                                                                                                                                                                                                                                                                                                                                                                                                                                                                                                                                                                                                                                                                                                            
ZKFBC_MEX_CABEXT000           115000000002651037400003300000002IEPS_Total                                                                                                                                                                                                                                                 0.00                                                                                                                                                                                                                                                                                                                                                                                                                                                                                                                                                                                                                                                                                                                                                                         
ZKFBC_MEX_CABEXT000           115000000002651037400003400000002sub_nodisc                                                                                                                                                                                                                                                                                                                                                                                                                                                                                                                                                                                                                                                                                                                                                                   5                                                                                                                                                                                                                                                          
ZKFBC_MEX_CABEXT000           115000000002651037400003500000002Total_discuento                                                                                                                                                                                                                                                                                                                                                                                                                                                                                                                                                                                                                                                                                                                                                           0.00                                                                                                                                                                                                                                                          
ZKFBC_MEX_CABEXT000           115000000002651037400003600000002Bank_Name                                                                                                                                                                                                                                                  PAGO DE CONTADO                                                                                                                                                                                                                                                                                                                                                                                                                                                                                                                                                                                                                                                                                                                                                              
ZKFBC_MEX_CABEXT000           115000000002651037400003700000002Bank_Account                                                                                                                                                                                                                                                                                                                                                                                                                                                                                                                                                                                                                                                                                                                                                                                                                                                                                                                                                                                                                            
ZKFBC_MEX_CABEXT000           115000000002651037400003800000002Bank_Branch                                                                                                                                                                                                                                                                                                                                                                                                                                                                                                                                                                                                                                                                                                                                                                                                                                                                                                                                                                                                                             
ZKFBC_MEX_CABEXT000           115000000002651037400003900000002Bank_CLABE                                                                                                                                                                                                                                                                                                                                                                                                                                                                                                                                                                                                                                                                                                                                                                                                                                                                                                                                                                                                                              
ZKFBC_MEX_CABEXT000           115000000002651037400004000000002peso_total                                                                                                                                                                                                                                                                                                                                                                                                                                                                                                                                                                                                                                                                                                                                                                   0                                                                                                                                                                                                                                                          
ZKFBC_MEX_CABEXT000           115000000002651037400004100000002Emi_Order                                                                                                                                                                                                                                                  0010858088                                                                                                                                                                                                                                                                                                                                                                                                                                                                                                                                                                                                                                                                                                                                                                   
ZKFBC_MEX_CABEXT000           115000000002651037400004200000002Deliv_Terms                                                                                                                                                                                                                                                0010858088                                                                                                                                                                                                                                                                                                                                                                                                                                                                                                                                                                                                                                                                                                                                                                   
ZKFBC_MEX_CABEXT000           115000000002651037400004300000002SAP                                                                                                                                                                                                                                                        3905005033                                                                                                                                                                                                                                                                                                                                                                                                                                                                                                                                                                                                                                                                                                                                                                   
ZKFBC_MEX_CABEXT000           115000000002651037400004400000002Ship_Name                                                                                                                                                                                                                                                  CLIENTES VARIOS SERVICIO RET IMP CON RFC                                                                                                                                                                                                                                                                                                                                                                                                                                                                                                                                                                                                                                                                                                                                     
ZKFBC_MEX_CABEXT000           115000000002651037400004500000002Ship_Street                                                                                                                                                                                                                                                                                                                                                                                                                                                                                                                                                                                                                                                                                                                                                                                                                                                                                                                                                                                                                             
ZKFBC_MEX_CABEXT000           115000000002651037400004600000002Ship_Colony                                                                                                                                                                                                                                                                                                                                                                                                                                                                                                                                                                                                                                                                                                                                                                                                                                                                                                                                                                                                                             
ZKFBC_MEX_CABEXT000           115000000002651037400004700000002Ship_ZIP                                                                                                                                                                                                                                                   00000                                                                                                                                                                                                                                                                                                                                                                                                                                                                                                                                                                                                                                                                                                                                                                        
ZKFBC_MEX_CABEXT000           115000000002651037400004800000002Ship_City                                                                                                                                                                                                                                                  GUADALAJARA                                                                                                                                                                                                                                                                                                                                                                                                                                                                                                                                                                                                                                                                                                                                                                  
ZKFBC_MEX_CABEXT000           115000000002651037400004900000002Ship_State                                                                                                                                                                                                                                                 JAL                                                                                                                                                                                                                                                                                                                                                                                                                                                                                                                                                                                                                                                                                                                                                                          
ZKFBC_MEX_CABEXT000           115000000002651037400005000000002Ship_Country                                                                                                                                                                                                                                               MX                                                                                                                                                                                                                                                                                                                                                                                                                                                                                                                                                                                                                                                                                                                                                                           
ZKFBC_MEX_CABEXT000           115000000002651037400005100000002Peso_Neto                                                                                                                                                                                                                                                  0.000                                                                                                                                                                                                                                                                                                                                                                                                                                                                                                                                                                                                                                                                                                                                                                        
ZKFBC_MEX_CABEXT000           115000000002651037400005200000002Peso_Bruto                                                                                                                                                                                                                                                 0.000                                                                                                                                                                                                                                                                                                                                                                                                                                                                                                                                                                                                                                                                                                                                                                        
ZKFBC_MEX_CABEXT000           115000000002651037400005300000002Invoice_Type                                                                                                                                                                                                                                               Factura                                                                                                                                                                                                                                                                                                                                                                                                                                                                                                                                                                                                                                                                                                                                                                      
ZKFBC_MEX_CABEXT000           115000000002651037400005400000002Nro_IEPS                                                                                                                                                                                                                                                                                                                                                                                                                                                                                                                                                                                                                                                                                                                                                                                                                                                                                                                                                                                                                                
ZKFBC_MEX_CABEXT000           115000000002651037400005500000002Ship_Location                                                                                                                                                                                                                                                                                                                                                                                                                                                                                                                                                                                                                                                                                                                                                                                                                                                                                                                                                                                                                           
ZKFBC_MEX_CABEXT000           115000000002651037400005600000002Moneda                                                                                                                                                                                                                                                     Pesos                                                                                                                                                                                                                                                                                                                                                                                                                                                                                                                                                                                                                                                                                                                                                                        
ZKFBC_MEX_CABEXT000           115000000002651037400005700000002Suc_Name                                                                                                                                                                                                                                                   Sucursal Guadalajara                                                                                                                                                                                                                                                                                                                                                                                                                                                                                                                                                                                                                                                                                                                                                         
ZKFBC_MEX_CABEXT000           115000000002651037400005800000002Suc_Street                                                                                                                                                                                                                                                 Sucursal Guadalajara                                                                                                                                                                                                                                                                                                                                                                                                                                                                                                                                                                                                                                                                                                                                                         
ZKFBC_MEX_CABEXT000           115000000002651037400005900000002Suc_Colony                                                                                                                                                                                                                                                 Technology Park, Zapopan                                                                                                                                                                                                                                                                                                                                                                                                                                                                                                                                                                                                                                                                                                                                                     
ZKFBC_MEX_CABEXT000           115000000002651037400006000000002Suc_Phone                                                                                                                                                                                                                                                  (33) 3942 3900                                                                                                                                                                                                                                                                                                                                                                                                                                                                                                                                                                                                                                                                                                                                                               
ZKFBC_MEX_CABEXT000           115000000002651037400006100000002Suc_Fax                                                                                                                                                                                                                                                    (33) 3942 3900                                                                                                                                                                                                                                                                                                                                                                                                                                                                                                                                                                                                                                                                                                                                                               
ZKFBC_MEX_CABEXT000           115000000002651037400006200000002Suc_State                                                                                                                                                                                                                                                  JAL                                                                                                                                                                                                                                                                                                                                                                                                                                                                                                                                                                                                                                                                                                                                                                          
ZKFBC_MEX_CABEXT000           115000000002651037400006300000002Suc_Country                                                                                                                                                                                                                                                México                                                                                                                                                                                                                                                                                                                                                                                                                                                                                                                                                                                                                                                                                                                                                                       
ZKFBC_MEX_CABEXT000           115000000002651037400006400000002Cons_Code                                                                                                                                                                                                                                                  0002017954                                                                                                                                                                                                                                                                                                                                                                                                                                                                                                                                                                                                                                                                                                                                                                   
ZKFBC_MEX_CABEXT000           115000000002651037400006500000002Cons_Name                                                                                                                                                                                                                                                  CLIENTES VARIOS SERVICIO RET IMP CO                                                                                                                                                                                                                                                                                                                                                                                                                                                                                                                                                                                                                                                                                                                                          
ZKFBC_MEX_CABEXT000           115000000002651037400006600000002Cons_Ad                                                                                                                                                                                                                                                                                                                                                                                                                                                                                                                                                                                                                                                                                                                                                                                                                                                                                                                                                                                                                                 
ZKFBC_MEX_CABEXT000           115000000002651037400006700000002Cons_Ad                                                                                                                                                                                                                                                                                                                                                                                                                                                                                                                                                                                                                                                                                                                                                                                                                                                                                                                                                                                                                                 
ZKFBC_MEX_CABEXT000           115000000002651037400006800000002Cons_City                                                                                                                                                                                                                                                  GUADALAJARA                                                                                                                                                                                                                                                                                                                                                                                                                                                                                                                                                                                                                                                                                                                                                                  
ZKFBC_MEX_CABEXT000           115000000002651037400006900000002Cons_Colony                                                                                                                                                                                                                                                                                                                                                                                                                                                                                                                                                                                                                                                                                                                                                                                                                                                                                                                                                                                                                             
ZKFBC_MEX_CABEXT000           115000000002651037400007000000002Cons_ZIP                                                                                                                                                                                                                                                   00000                                                                                                                                                                                                                                                                                                                                                                                                                                                                                                                                                                                                                                                                                                                                                                        
ZKFBC_MEX_CABEXT000           115000000002651037400007100000002Cons_State                                                                                                                                                                                                                                                 JAL                                                                                                                                                                                                                                                                                                                                                                                                                                                                                                                                                                                                                                                                                                                                                                          
ZKFBC_MEX_CABEXT000           115000000002651037400007200000002Cons_Country                                                                                                                                                                                                                                               México                                                                                                                                                                                                                                                                                                                                                                                                                                                                                                                                                                                                                                                                                                                                                                       
ZKFBC_MEX_CABEXT000           115000000002651037400007300000002Cus_Number                                                                                                                                                                                                                                                 0001009293                                                                                                                                                                                                                                                                                                                                                                                                                                                                                                                                                                                                                                                                                                                                                                   
ZKFBC_MEX_CABEXT000           115000000002651037400007400000002Cus_Order                                                                                                                                                                                                                                                  Venta desperdicio Prueba                                                                                                                                                                                                                                                                                                                                                                                                                                                                                                                                                                                                                                                                                                                                                     
ZKFBC_MEX_CABEXT000           115000000002651037400007500000002Cus_Order_Date                                                                                                                                                                                                                                             20170821                                                                                                                                                                                                                                                                                                                                                                                                                                                                                                                                                                                                                                                                                                                                                                     
ZKFBC_MEX_CABEXT000           115000000002651037400007600000002Transp_Mode                                                                                                                                                                                                                                                Camión                                                                                                                                                                                                                                                                                                                                                                                                                                                                                                                                                                                                                                                                                                                                                                       
ZKFBC_MEX_CABEXT000           115000000002651037400007700000002Cond_Pagto                                                                                                                                                                                                                                                 Net 15 Days                                                                                                                                                                                                                                                                                                                                                                                                                                                                                                                                                                                                                                                                                                                                                                  
ZKFBC_MEX_CABEXT000           115000000002651037400007800000002Pagto_Ddate                                                                                                                                                                                                                                                20170905                                                                                                                                                                                                                                                                                                                                                                                                                                                                                                                                                                                                                                                                                                                                                                     
ZKFBC_MEX_CABEXT000           115000000002651037400007900000002Comments_AdditionalInfo                                                                                                                                                                                                                                    03|0000                                                                                                                                                                                                                                                                                                                                                                                                                                                                                                                                                                                                                                                                                                                                                                      
ZKFBC_MEX_CABEXT000           115000000002651037400008000000002PLANT                                                                                                                                                                                                                                                      TGDL                                                                                                                                                                                                                                                                                                                                                                                                                                                                                                                                                                                                                                                                                                                                                                         
ZKFBC_MEX_CABEXT000           115000000002651037400008100000002BILLING                                                                                                                                                                                                                                                    ZMS                                                                                                                                                                                                                                                                                                                                                                                                                                                                                                                                                                                                                                                                                                                                                                          
ZKFBC_MEX_CABEXT000           115000000002651037400008200000002Doc_Credit_Reasons                                                                                                                                                                                                                                         MISC: VARIOS                                                                                                                                                                                                                                                                                                                                                                                                                                                                                                                                                                                                                                                                                                                                                                 
ZKFBC_MEX_CABEXT000           115000000002651037400008300000002Ship_Incoterms                                                                                                                                                                                                                                             DDP - DESTINACION                                                                                                                                                                                                                                                                                                                                                                                                                                                                                                                                                                                                                                                                                                                                                            
ZKFBC_MEX_CABEXT000           115000000002651037400008400000002Ship_Mode                                                                                                                                                                                                                                                  Flete Por Cobrar                                                                                                                                                                                                                                                                                                                                                                                                                                                                                                                                                                                                                                                                                                                                                             
ZKFBC_MEX_CABEXT000           115000000002651037400008500000002Comment1                                                                                                                                                                                                                                                   Prueba de facturacion de retencion de IVA por venta de desechos                                                                                                                                                                                                                                                                                                                                                                                                                                                                                                                                                                                                                                                                                                              
ZKFBC_MEX_CABEXT000           115000000002651037400008600000002ADDENDA                                                                                                                                                                                                                                                                                                                                                                                                                                                                                                                                                                                                                                                                                                                                                                                                                                                                                                                                                                                                                                 
ZKFBC_MEX_CABEXT000           115000000002651037400008700000002metodo_pago                                                                                                                                                                                                                                                03                                                                                                                                                                                                                                                                                                                                                                                                                                                                                                                                                                                                                                                                                                                                                                           
ZKFBC_MEX_CABEXT000           115000000002651037400008800000002T_EMISSOR_DF-ESTADO                                                                                                                                                                                                                                        JAL                                                                                                                                                                                                                                                                                                                                                                                                                                                                                                                                                                                                                                                                                                                                                                          
ZKFBC_MEX_CABEXT000           115000000002651037400008900000002T_EMISSOR_DF-PAIS                                                                                                                                                                                                                                          Mexico                                                                                                                                                                                                                                                                                                                                                                                                                                                                                                                                                                                                                                                                                                                                                                       
ZKFBC_MEX_CABEXT000           115000000002651037400009000000002T_EMISSOR_DF-MUNICIPIO                                                                                                                                                                                                                                     Guadalajara                                                                                                                                                                                                                                                                                                                                                                                                                                                                                                                                                                                                                                                                                                                                                                  
ZKFBC_MEX_CABEXT000           115000000002651037400009100000002T_EMISSOR_DF-LOCALIDAD                                                                                                                                                                                                                                     Guadalajara                                                                                                                                                                                                                                                                                                                                                                                                                                                                                                                                                                                                                                                                                                                                                                  
ZKFBC_MEX_CABEXT000           115000000002651037400009200000002T_EMISSOR_EX-ESTADO                                                                                                                                                                                                                                        JAL                                                                                                                                                                                                                                                                                                                                                                                                                                                                                                                                                                                                                                                                                                                                                                          
ZKFBC_MEX_CABEXT000           115000000002651037400009300000002T_EMISSOR_EX-PAIS                                                                                                                                                                                                                                          Mexico                                                                                                                                                                                                                                                                                                                                                                                                                                                                                                                                                                                                                                                                                                                                                                       
