EDI_DC40  1150000000028979599750 3012  ZKFBC_MX_INVOICE                                            ZKFBC_MX_OUT                                     SAPKFQ    LS  Z100                                                                                                 ZKFBC00001LS  TFCLIENT                                                                                             20180918140506                                                                                                                20180918140506      
ZKFBC_MEX_HEADER000           1150000000028979599000001000000013920009409  2018-09-18T13:05:0699                                                              90 D as                                                         201.00           31.07                             MXN249.35           E       PPD                                                             SD35003920009409                                                                                                                            45010                                                                                                                   No Identificado                                                                                                                                                                         3.3                                                                                                                                                                                                                                                           
ZKFBC_MEX_RELACIONADOS000     11500000000289795990000020000000203e17493e1-c372-45b7-9fba-0c786d1e2f1e                                                                                                                                                                                                                                                                                                                                                                                                                                                                                                                                                                                                                                                                                                                                                                                                                                                                                                                                                                                                  
ZKFBC_MEX_EMISSOR000          115000000002897959900000300000001BTM060817960        Brown-Forman Tequila Mexico S de RL de CV                                                                                                                                                                                                                                                                                                                                                                                                                                                                                                                                                                                                                                                                                                                                                                                                                                                                                                                                                                           
ZKFBC_MEX_EMISSOR_DF000       115000000002897959900000400000302Av. De las Americas                                              1545                     Piso 8                                                                                    Guadalajara                                                                               Guadalajara                                                      JAL                                                              Mexico                                                           44630                                                                                                                                                                                                                                                                                                                                                                                                                                                                                                                                                  
ZKFBC_MEX_EMISSOR_EX000       115000000002897959900000500000302Paseo del Norte 5100                                                                                               Technology Park, Zapopan                                         Pinar de la Venta                                                                                                                                          JAL                                                              Mexico                                                           45010                                                                                                                                                                                                                                                                                                                                                                                                                                                                                                                                                  
ZKFBC_MEX_REGIMENFISCAL000    115000000002897959900000600000302601                                                                                                                                                                                                                                                                                                                                                                                                                                                                                                                                                                                                                                                                                                                                                                                                                                                                                                                                                                                                                                     
ZKFBC_MEX_RECEPTOR000         115000000002897959900000700000001CCO8605231N4        CADENA COMERCIAL OXXO SA DE CV                                                                                                                                                                                                                                                                                                                                                                                  G02                                                                                                                                                                                                                                                                                                                                                                                                                                                                                                                                                                                                 
ZKFBC_MEX_RECEPTOR_DF000      115000000002897959900000800000702AV. INDUSTRIA  AUTOMOTRIZ No. 206                                                                                  COL. CEMENTOS PARQUE IND. STIVA                                                                                                                            LEON                                                             GTO                                                              M xico                                                           37563                                                                                                                                                                                                                                                                                                                                                                                                                                                                                                                                                  
ZKFBC_MEX_ITEM000             1150000000028979599000009000000021            Caja                     50764511          PK 12 JD RTD MINERAL 12/473ML 16oz MEX                                                                                  201.00           201.00           00019031.07            XBX5020220750764511                                                                                                                                                                                                                                                                                                                                                                                                                                                                                                                                                                                                                                                                                                                                                                            
ZKFBC_MEX_ITEMEXT000          115000000002897959900001000000903DetExtAFN_01                                                                                                                                                                                                                                               MX                                                                                                                                                                                                                                                                                                                                                                                                                                                                                                                  000190                                                                                                                                                                                                                                                   
ZKFBC_MEX_ITEMEXT000          115000000002897959900001100000903DetExtAFN_08                                                                                                                                                                                                                                                                                                                                                                                                                                                                                                                                                                                                                                                                                                                                                            12.677 000190                                                                                                                                                                                                                                                   
ZKFBC_MEX_ITEMEXT000          115000000002897959900001200000903DetExtAFN_09                                                                                                                                                                                                                                                                                                                                                                                                                                                                                                                                                                                                                                                                                                                                                            12.677 000190                                                                                                                                                                                                                                                   
ZKFBC_MEX_ITEMEXT000          115000000002897959900001300000903DetExtAFN_14                                                                                                                                                                                                                                                                                                                                                                                                                                                                                                                                                                                                                                                                                                                                                              26.5 000190                                                                                                                                                                                                                                                   
ZKFBC_MEX_ITEMEXT000          115000000002897959900001400000903DetExtAFN_13                                                                                                                                                                                                                                               5099873006856                                                                                                                                                                                                                                                                                                                                                                                                                                                                                                       000190                                                                                                                                                                                                                                                   
ZKFBC_MEX_ITEMEXT000          115000000002897959900001500000903DetExtAFN_12                                                                                                                                                                                                                                                6.0                                                                                                                                                                                                                                                                                                                                                                                                                                                                                                                000190                                                                                                                                                                                                                                                   
ZKFBC_MEX_ITEMEXT000          115000000002897959900001600000903Port_Departure                                                                                                                                                                                                                                                                                                                                                                                                                                                                                                                                                                                                                                                                                                                                                                 000190                                                                                                                                                                                                                                                   
ZKFBC_MEX_ITEMEXT000          115000000002897959900001700000903Port_Destination                                                                                                                                                                                                                                                                                                                                                                                                                                                                                                                                                                                                                                                                                                                                                               000190                                                                                                                                                                                                                                                   
ZKFBC_MEX_ITEMEXT000          115000000002897959900001800000903Port_Destination                                                                                                                                                                                                                                                                                                                                                                                                                                                                                                                                                                                                                                                                                                                                                               000190                                                                                                                                                                                                                                                   
ZKFBC_MEX_ITEMEXT000          115000000002897959900001900000903Comment2                                                                                                                                                                                                                                                                                                                                                                                                                                                                                                                                                                                                                                                                                                                                                                       000190                                                                                                                                                                                                                                                   
ZKFBC_MEX_ITEMEXT000          115000000002897959900002000000903Comment3                                                                                                                                                                                                                                                                                                                                                                                                                                                                                                                                                                                                                                                                                                                                                                       000190                                                                                                                                                                                                                                                   
ZKFBC_MEX_ITEMEXT000          115000000002897959900002100000903Comment4                                                                                                                                                                                                                                                                                                                                                                                                                                                                                                                                                                                                                                                                                                                                                                       000190                                                                                                                                                                                                                                                   
ZKFBC_MEX_ITEM_TR000          115000000002897959900002200000903           45.03 Tasa       0.265000 003                        169.93 000190                                                                                                                                                                                                                                                                                                                                                                                                                                                                                                                                                                                                                                                                                                                                                                                                                                                                                                                                                           
ZKFBC_MEX_ITEM_TR000          115000000002897959900002300000903           34.39 Tasa       0.160000 002                        214.96 000190                                                                                                                                                                                                                                                                                                                                                                                                                                                                                                                                                                                                                                                                                                                                                                                                                                                                                                                                                           
ZKFBC_MEX_TAX000              115000000002897959900002400000001                 79.42                                                                                                                                                                                                                                                                                                                                                                                                                                                                                                                                                                                                                                                                                                                                                                                                                                                                                                                                                                                                                  
ZKFBC_MEX_TAX_TS000           115000000002897959900002500002402003             0.265000        45.03            Tasa       0.265000                                                                                                                                                                                                                                                                                                                                                                                                                                                                                                                                                                                                                                                                                                                                                                                                                                                                                                                                                                    
ZKFBC_MEX_TAX_TS000           115000000002897959900002600002402002             0.160000        34.39            Tasa       0.160000                                                                                                                                                                                                                                                                                                                                                                                                                                                                                                                                                                                                                                                                                                                                                                                                                                                                                                                                                                    
ZKFBC_MEX_CABEXT000           115000000002897959900002700000002TIPOCOMPROBANTE                                                                                                                                                                                                                                            EGRESO                                                                                                                                                                                                                                                                                                                                                                                                                                                                                                                                                                                                                                                                                                                                                                       
ZKFBC_MEX_CABEXT000           115000000002897959900002800000002DOCNUM                                                                                                                                                                                                                                                     SD35003920009409                                                                                                                                                                                                                                                                                                                                                                                                                                                                                                                                                                                                                                                                                                                                                             
ZKFBC_MEX_CABEXT000           115000000002897959900002900000002REGIMENFISCAL                                                                                                                                                                                                                                              REGIMEN GENERAL DE LA LEY DE PERSONAS MORALES                                                                                                                                                                                                                                                                                                                                                                                                                                                                                                                                                                                                                                                                                                                                
ZKFBC_MEX_CABEXT000           115000000002897959900003000000002                                                                                                                                                                                                                                                                                                                                                                                                                                                                                                                                                                                                                                                                                                                                                                                                                                                                                                                                                                                                                                        
ZKFBC_MEX_CABEXT000           115000000002897959900003100000002Rec_Code                                                                                                                                                                                                                                                   0001005744                                                                                                                                                                                                                                                                                                                                                                                                                                                                                                                                                                                                                                                                                                                                                                   
ZKFBC_MEX_CABEXT000           115000000002897959900003200000002Rec_Ad                                                                                                                                                                                                                                                     CADENA COMERCIAL OXXO SA DE CV                                                                                                                                                                                                                                                                                                                                                                                                                                                                                                                                                                                                                                                                                                                                               
ZKFBC_MEX_CABEXT000           115000000002897959900003300000002CANT_TTAL_MAT                                                                                                                                                                                                                                              1                                                                                                                                                                                                                                                                                                                                                                                                                                                                                                                                                                                                                                                                                                                                                                            
ZKFBC_MEX_CABEXT000           115000000002897959900003400000002IEPS_Total                                                                                                                                                                                                                                                                                                                                                                                                                                                                                                                                                                                                                                                                                                                                                               45.03                                                                                                                                                                                                                                                          
ZKFBC_MEX_CABEXT000           115000000002897959900003500000002IEPS_Importe                                                                                                                                                                                                                                                                       33.36;                        68.88;                        51.15;;;                                                                                                                                                                                                                                                                                                                                                                                                                                                                                                                                                                                                                                                                                 
ZKFBC_MEX_CABEXT000           115000000002897959900003600000002IEPS_Tasa                                                                                                                                                                                                                                                  I.E.P.S 26.50 % ; I.E.P.S 26.50 % ; I.E.P.S 26.50 % ; I.E.P.S 26.50 % ; I.E.P.S 26.50 % ; I.E.P.S 26.50 %                                                                                                                                                                                                                                                                                                                                                                                                                                                                                                                                                                                                                                                                    
ZKFBC_MEX_CABEXT000           115000000002897959900003700000002sub_nodisc                                                                                                                                                                                                                                                                                                                                                                                                                                                                                                                                                                                                                                                                                                                                                              618.95                                                                                                                                                                                                                                                          
ZKFBC_MEX_CABEXT000           115000000002897959900003800000002Total_discuento                                                                                                                                                                                                                                                                                                                                                                                                                                                                                                                                                                                                                                                                                                                                                           0.00                                                                                                                                                                                                                                                          
ZKFBC_MEX_CABEXT000           115000000002897959900003900000002Bank_Name                                                                                                                                                                                                                                                      BANAMEX                                                                                                                                                                                                                                                                                                                                                                                                                                                                                                                                                                                                                                                                                                                                                                  
ZKFBC_MEX_CABEXT000           115000000002897959900004000000002Bank_Account                                                                                                                                                                                                                                                  0161037                                                                                                                                                                                                                                                                                                                                                                                                                                                                                                                                                                                                                                                                                                                                                                   
ZKFBC_MEX_CABEXT000           115000000002897959900004100000002Bank_Branch                                                                                                                                                                                                                                                     0001                                                                                                                                                                                                                                                                                                                                                                                                                                                                                                                                                                                                                                                                                                                                                                    
ZKFBC_MEX_CABEXT000           115000000002897959900004200000002Bank_CLABE                                                                                                                                                                                                                                                 002320000101610378                                                                                                                                                                                                                                                                                                                                                                                                                                                                                                                                                                                                                                                                                                                                                           
ZKFBC_MEX_CABEXT000           115000000002897959900004300000002peso_total                                                                                                                                                                                                                                                                                                                                                                                                                                                                                                                                                                                                                                                                                                                                                              12.677                                                                                                                                                                                                                                                          
ZKFBC_MEX_CABEXT000           115000000002897959900004400000002Emi_Order                                                                                                                                                                                                                                                  0080188017                                                                                                                                                                                                                                                                                                                                                                                                                                                                                                                                                                                                                                                                                                                                                                   
ZKFBC_MEX_CABEXT000           115000000002897959900004500000002Deliv_Terms                                                                                                                                                                                                                                                0080188025                                                                                                                                                                                                                                                                                                                                                                                                                                                                                                                                                                                                                                                                                                                                                                   
ZKFBC_MEX_CABEXT000           115000000002897959900004600000002SAP                                                                                                                                                                                                                                                        3920009409                                                                                                                                                                                                                                                                                                                                                                                                                                                                                                                                                                                                                                                                                                                                                                   
ZKFBC_MEX_CABEXT000           115000000002897959900004700000002Ship_Name                                                                                                                                                                                                                                                  CADENA COMERCIAL OXXO SA DE CVCEDIS LEON                                                                                                                                                                                                                                                                                                                                                                                                                                                                                                                                                                                                                                                                                                                                     
ZKFBC_MEX_CABEXT000           115000000002897959900004800000002Ship_Street                                                                                                                                                                                                                                                AV. INDUSTRIA  AUTOMOTRIZ No. 206                                                                                                                                                                                                                                                                                                                                                                                                                                                                                                                                                                                                                                                                                                                                            
ZKFBC_MEX_CABEXT000           115000000002897959900004900000002Ship_Colony                                                                                                                                                                                                                                                COL. CEMENTOS PARQUE IND. STIVA                                                                                                                                                                                                                                                                                                                                                                                                                                                                                                                                                                                                                                                                                                                                              
ZKFBC_MEX_CABEXT000           115000000002897959900005000000002Ship_ZIP                                                                                                                                                                                                                                                   37563                                                                                                                                                                                                                                                                                                                                                                                                                                                                                                                                                                                                                                                                                                                                                                        
ZKFBC_MEX_CABEXT000           115000000002897959900005100000002Ship_City                                                                                                                                                                                                                                                  LEON                                                                                                                                                                                                                                                                                                                                                                                                                                                                                                                                                                                                                                                                                                                                                                         
ZKFBC_MEX_CABEXT000           115000000002897959900005200000002Ship_State                                                                                                                                                                                                                                                 GTO                                                                                                                                                                                                                                                                                                                                                                                                                                                                                                                                                                                                                                                                                                                                                                          
ZKFBC_MEX_CABEXT000           115000000002897959900005300000002Ship_Country                                                                                                                                                                                                                                               MX                                                                                                                                                                                                                                                                                                                                                                                                                                                                                                                                                                                                                                                                                                                                                                           
ZKFBC_MEX_CABEXT000           115000000002897959900005400000002Peso_Neto                                                                                                                                                                                                                                                  5.750                                                                                                                                                                                                                                                                                                                                                                                                                                                                                                                                                                                                                                                                                                                                                                        
ZKFBC_MEX_CABEXT000           115000000002897959900005500000002Peso_Bruto                                                                                                                                                                                                                                                 5.750                                                                                                                                                                                                                                                                                                                                                                                                                                                                                                                                                                                                                                                                                                                                                                        
ZKFBC_MEX_CABEXT000           115000000002897959900005600000002Invoice_Type                                                                                                                                                                                                                                               Nota de Cr dito                                                                                                                                                                                                                                                                                                                                                                                                                                                                                                                                                                                                                                                                                                                                                              
ZKFBC_MEX_CABEXT000           115000000002897959900005700000002Nro_IEPS                                                                                                                                                                                                                                                   01105704491325                                                                                                                                                                                                                                                                                                                                                                                                                                                                                                                                                                                                                                                                                                                                                               
ZKFBC_MEX_CABEXT000           115000000002897959900005800000002Ship_Location                                                                                                                                                                                                                                                                                                                                                                                                                                                                                                                                                                                                                                                                                                                                                                                                                                                                                                                                                                                                                           
ZKFBC_MEX_CABEXT000           115000000002897959900005900000002Moneda                                                                                                                                                                                                                                                     Pesos                                                                                                                                                                                                                                                                                                                                                                                                                                                                                                                                                                                                                                                                                                                                                                        
ZKFBC_MEX_CABEXT000           115000000002897959900006000000002Suc_Name                                                                                                                                                                                                                                                   Sucursal Guadalajara                                                                                                                                                                                                                                                                                                                                                                                                                                                                                                                                                                                                                                                                                                                                                         
ZKFBC_MEX_CABEXT000           115000000002897959900006100000002Suc_Street                                                                                                                                                                                                                                                 Sucursal Guadalajara                                                                                                                                                                                                                                                                                                                                                                                                                                                                                                                                                                                                                                                                                                                                                         
ZKFBC_MEX_CABEXT000           115000000002897959900006200000002Suc_Colony                                                                                                                                                                                                                                                 Technology Park, Zapopan                                                                                                                                                                                                                                                                                                                                                                                                                                                                                                                                                                                                                                                                                                                                                     
ZKFBC_MEX_CABEXT000           115000000002897959900006300000002Suc_Phone                                                                                                                                                                                                                                                  (33) 3942 3900                                                                                                                                                                                                                                                                                                                                                                                                                                                                                                                                                                                                                                                                                                                                                               
ZKFBC_MEX_CABEXT000           115000000002897959900006400000002Suc_Fax                                                                                                                                                                                                                                                    (33) 3942 3900                                                                                                                                                                                                                                                                                                                                                                                                                                                                                                                                                                                                                                                                                                                                                               
ZKFBC_MEX_CABEXT000           115000000002897959900006500000002Suc_State                                                                                                                                                                                                                                                  JAL                                                                                                                                                                                                                                                                                                                                                                                                                                                                                                                                                                                                                                                                                                                                                                          
ZKFBC_MEX_CABEXT000           115000000002897959900006600000002Suc_Country                                                                                                                                                                                                                                                M xico                                                                                                                                                                                                                                                                                                                                                                                                                                                                                                                                                                                                                                                                                                                                                                       
ZKFBC_MEX_CABEXT000           115000000002897959900006700000002Cons_Phone                                                                                                                                                                                                                                                 01 477 761 70 67                                                                                                                                                                                                                                                                                                                                                                                                                                                                                                                                                                                                                                                                                                                                                             
ZKFBC_MEX_CABEXT000           115000000002897959900006800000002Cons_Code                                                                                                                                                                                                                                                  0002011787                                                                                                                                                                                                                                                                                                                                                                                                                                                                                                                                                                                                                                                                                                                                                                   
ZKFBC_MEX_CABEXT000           115000000002897959900006900000002Cons_Name                                                                                                                                                                                                                                                  CADENA COMERCIAL OXXO SA DE CV                                                                                                                                                                                                                                                                                                                                                                                                                                                                                                                                                                                                                                                                                                                                               
ZKFBC_MEX_CABEXT000           115000000002897959900007000000002Cons_Ad                                                                                                                                                                                                                                                    CEDIS LEON                                                                                                                                                                                                                                                                                                                                                                                                                                                                                                                                                                                                                                                                                                                                                                   
ZKFBC_MEX_CABEXT000           115000000002897959900007100000002Cons_Ad                                                                                                                                                                                                                                                    AV. INDUSTRIA  AUTOMOTRIZ No. 206                                                                                                                                                                                                                                                                                                                                                                                                                                                                                                                                                                                                                                                                                                                                            
ZKFBC_MEX_CABEXT000           115000000002897959900007200000002Cons_City                                                                                                                                                                                                                                                  LEON                                                                                                                                                                                                                                                                                                                                                                                                                                                                                                                                                                                                                                                                                                                                                                         
ZKFBC_MEX_CABEXT000           115000000002897959900007300000002Cons_Colony                                                                                                                                                                                                                                                COL. CEMENTOS PARQUE IND. STIVA                                                                                                                                                                                                                                                                                                                                                                                                                                                                                                                                                                                                                                                                                                                                              
ZKFBC_MEX_CABEXT000           115000000002897959900007400000002Cons_ZIP                                                                                                                                                                                                                                                   37563                                                                                                                                                                                                                                                                                                                                                                                                                                                                                                                                                                                                                                                                                                                                                                        
ZKFBC_MEX_CABEXT000           115000000002897959900007500000002Cons_State                                                                                                                                                                                                                                                 GTO                                                                                                                                                                                                                                                                                                                                                                                                                                                                                                                                                                                                                                                                                                                                                                          
ZKFBC_MEX_CABEXT000           115000000002897959900007600000002Cons_Country                                                                                                                                                                                                                                               M xico                                                                                                                                                                                                                                                                                                                                                                                                                                                                                                                                                                                                                                                                                                                                                                       
ZKFBC_MEX_CABEXT000           115000000002897959900007700000002Cus_Number                                                                                                                                                                                                                                                 0001005744                                                                                                                                                                                                                                                                                                                                                                                                                                                                                                                                                                                                                                                                                                                                                                   
ZKFBC_MEX_CABEXT000           115000000002897959900007800000002Cus_Order                                                                                                                                                                                                                                                  3900092746                                                                                                                                                                                                                                                                                                                                                                                                                                                                                                                                                                                                                                                                                                                                                                   
ZKFBC_MEX_CABEXT000           115000000002897959900007900000002Transp_Mode                                                                                                                                                                                                                                                Camión                                                                                                                                                                                                                                                                                                                                                                                                                                                                                                                                                                                                                                                                                                                                                                       
ZKFBC_MEX_CABEXT000           115000000002897959900008000000002Cond_Pagto                                                                                                                                                                                                                                                 90 D as                                                                                                                                                                                                                                                                                                                                                                                                                                                                                                                                                                                                                                                                                                                                                                      
ZKFBC_MEX_CABEXT000           115000000002897959900008100000002Cus_Phone                                                                                                                                                                                                                                                  01 477 761 70 67                                                                                                                                                                                                                                                                                                                                                                                                                                                                                                                                                                                                                                                                                                                                                             
ZKFBC_MEX_CABEXT000           115000000002897959900008200000002Cus_Fax                                                                                                                                                                                                                                                    01 477 761 70 67                                                                                                                                                                                                                                                                                                                                                                                                                                                                                                                                                                                                                                                                                                                                                             
ZKFBC_MEX_CABEXT000           115000000002897959900008300000002Pagto_Ddate                                                                                                                                                                                                                                                20181209                                                                                                                                                                                                                                                                                                                                                                                                                                                                                                                                                                                                                                                                                                                                                                     
ZKFBC_MEX_CABEXT000           115000000002897959900008400000002Comments_AdditionalInfo                                                                                                                                                                                                                                    99                                                                                                                                                                                                                                                                                                                                                                                                                                                                                                                                                                                                                                                                                                                                                                           
ZKFBC_MEX_CABEXT000           115000000002897959900008500000002PLANT                                                                                                                                                                                                                                                      TGDL                                                                                                                                                                                                                                                                                                                                                                                                                                                                                                                                                                                                                                                                                                                                                                         
ZKFBC_MEX_CABEXT000           115000000002897959900008600000002BILLING                                                                                                                                                                                                                                                    ZRP                                                                                                                                                                                                                                                                                                                                                                                                                                                                                                                                                                                                                                                                                                                                                                          
ZKFBC_MEX_CABEXT000           115000000002897959900008700000002Doc_Credit_Reasons                                                                                                                                                                                                                                         DEVOLUCION: RECHAZO PARCIAL S/E.                                                                                                                                                                                                                                                                                                                                                                                                                                                                                                                                                                                                                                                                                                                                             
ZKFBC_MEX_CABEXT000           115000000002897959900008800000002Ship_Incoterms                                                                                                                                                                                                                                             DDP - DESTINACIÓN                                                                                                                                                                                                                                                                                                                                                                                                                                                                                                                                                                                                                                                                                                                                                            
ZKFBC_MEX_CABEXT000           115000000002897959900008900000002Ship_Mode                                                                                                                                                                                                                                                  Flete Por Cobrar                                                                                                                                                                                                                                                                                                                                                                                                                                                                                                                                                                                                                                                                                                                                                             
ZKFBC_MEX_CABEXT000           115000000002897959900009000000002Comment1                                                                                                                                                                                                                                                   6213                                                                                                                                                                                                                                                                                                                                                                                                                                                                                                                                                                                                                                                                                                                                                                         
ZKFBC_MEX_CABEXT000           115000000002897959900009100000002EMAIL                                                                                                                                                                                                                                                      claudiaamezola@b-f.com                                                                                                                                                                                                                                                                                                                                                                                                                                                                                                                                                                                                                                                                                                                                                       
ZKFBC_MEX_CABEXT000           115000000002897959900009200000002ADDENDA                                                                                                                                                                                                                                                                                                                                                                                                                                                                                                                                                                                                                                                                                                                                                                                                                                                                                                                                                                                                                                 
ZKFBC_MEX_CABEXT000           115000000002897959900009300000002metodo_pago                                                                                                                                                                                                                                                99                                                                                                                                                                                                                                                                                                                                                                                                                                                                                                                                                                                                                                                                                                                                                                           
