EDI_DC40  1150000000028979583750 3012  ZKFBC_MX_INVOICE                                            ZKFBC_MX_OUT                                     SAPKFQ    LS  Z100                                                                                                 ZKFBC00001LS  TFCLIENT                                                                                             20180918135709                                                                                                                20180918135707      
ZKFBC_MEX_HEADER000           1150000000028979583000001000000010014088916  2018-09-18T13:57:07                                                                                                                                0                                                  XXX0                P                                                                       PG350000140889162019                                                                                                                        44630                                                                                                                                                                                                                                                                                                           3.3                                                                                                                                                                                                                                                           
ZKFBC_MEX_EMISSOR000          115000000002897958300000200000001BTM060817960        Brown-Forman Tequila Mexico S de RL de CV                                                                                                                                                                                                                                                                                                                                                                                                                                                                                                                                                                                                                                                                                                                                                                                                                                                                                                                                                                           
ZKFBC_MEX_EMISSOR_DF000       115000000002897958300000300000202Av. de las Americas                                              1545                                                                                                                                                                                                         Guadalajara                                                      JAL                                                              M xico                                                           44630                                                                                                                                                                                                                                                                                                                                                                                                                                                                                                                                                  
ZKFBC_MEX_EMISSOR_EX000       115000000002897958300000400000202Av. de las Americas                                              1545                                                                                                                                                                                                         Guadalajara                                                      JAL                                                              M xico                                                           44630                                                                                                                                                                                                                                                                                                                                                                                                                                                                                                                                                  
ZKFBC_MEX_REGIMENFISCAL000    115000000002897958300000500000202601                                                                                                                                                                                                                                                                                                                                                                                                                                                                                                                                                                                                                                                                                                                                                                                                                                                                                                                                                                                                                                     
ZKFBC_MEX_RECEPTOR000         115000000002897958300000600000001CCO8605231N4        CADENA COMERCIAL OXXO SA DE CV                                                                                                                                                                                                                                                                                                                                                                                  P01                                                                                                                                                                                                                                                                                                                                                                                                                                                                                                                                                                                                 
ZKFBC_MEX_RECEPTOR_DF000      115000000002897958300000700000602                                                                                                                   AL LADO DE FRACC. VILLA DE CORTEZ                                                                                                                          MEXICALI                                                         BC                                                               M xico                                                           21395                                                                                                                                                                                                                                                                                                                                                                                                                                                                                                                                                  
ZKFBC_MEX_ITEM000             1150000000028979583000008000000021                                                       Pago                                                                                                                    0                0                                       ACT84111506                                                                                                                                                                                                                                                                                                                                                                                                                                                                                                                                                                                                                                                                                                                                                                                    
ZKFBC_MEX_CABEXT000           115000000002897958300000900000002REGIMENFISCAL                                                                                                                                                                                                                                              REGIMEN GENERAL DE LA LEY DE PERSONAS MORALES                                                                                                                                                                                                                                                                                                                                                                                                                                                                                                                                                                                                                                                                                                                                
ZKFBC_MEX_CABEXT000           115000000002897958300001000000002USOCFDI                                                                                                                                                                                                                                                    P01 POR DEFINIR                                                                                                                                                                                                                                                                                                                                                                                                                                                                                                                                                                                                                                                                                                                                                              
ZKFBC_MEX_CABEXT000           115000000002897958300001100000002REGIMENFIS                                                                                                                                                                                                                                                 601 REGIMEN GENERAL DE LA LEY DE PERSONAS MORALES                                                                                                                                                                                                                                                                                                                                                                                                                                                                                                                                                                                                                                                                                                                            
ZKFBC_MEX_COMPR_PAGO000       115000000002897958300001200000002                                  2018-09-1703 MXN                               456137.18                                                                                                     BSM970519DU8                                                                                                                                                                                                                                                                                                             65501473810                                       BNM840515VB1 0010161037                                                                                                              2018-09-17T13:55:25                                                                                                                                                                                                                                                                                                      
ZKFBC_MEX_COMPR_DOC_REL000    115000000002897958300001300001203564d5df7-56a9-4859-b22e-d9d39b2f0074                                       3901012950                              MXN                        PPD         1        457616.74        456137.18          1479.56                                                                                                                                                                                                                                                                                                                                                                                                                                                                                                                                                                                                                                                                                                                                                                                                                          
