EDI_DC40  4000000000054514547740 3012  ZKFBC_MX_INVOICE                                            ZKFBC_MX_OUT                                     SAPKFQ    LS  PR1400                                                                                               KFBCTF0001LS  TFCLIENT                                                                                             20180718181829                                                                                                                20180718181829      
ZKFBC_MEX_HEADER000           4000000000054514547000001000000016005288619  2018-07-18T18:18:29                                                                                                                                0.00                              1                MXN0.00             T                                                                       DL16116005288619                                                                                                                            91700                                                                                                                                                                                                                                                                                                           3.3                                                                                                                                                                                                                                                           
ZKFBC_MEX_EMISSOR000          400000000005451454700000200000001BTM060817960        Bunge Comercial SA de CV                                                                                                                                                                                                                                                                                                                                                                                                                                                                                                                                                                                                                                                                                                                                                                                                                                                                                                                                                                                            
ZKFBC_MEX_EMISSOR_DF000       400000000005451454700000300000202ALFONSO NAPOLES GANDARA 50 PISO 3                                                                                  COL. SANTA FE PEÑA BLANCA                                        MEXICO,D.F                                                                                DELEG.ALVARO OBREGON                                             Ciudad de Mexico                                                 México                                                           01210                                                                                                                                                                                                                                                                                                                                                                                                                                                                                                                                                  
ZKFBC_MEX_EMISSOR_EX000       400000000005451454700000400000202Calle Mariano Arista no.1625                                                                                       VERACRUZ                                                                                                                                                   Colonia Centro                                                   Veracruz                                                         México                                                           91700                                                                                                                                                                                                                                                                                                                                                                                                                                                                                                                                                  
ZKFBC_MEX_REGIMENFISCAL000    400000000005451454700000500000202601                                                                                                                                                                                                                                                                                                                                                                                                                                                                                                                                                                                                                                                                                                                                                                                                                                                                                                                                                                                                                                     
ZKFBC_MEX_RECEPTOR000         400000000005451454700000600000001BIM011108DJ5        VILLAHERMOSA 01899 3310 2069 BIMBO SA DE CV                                                                                                                                                                                                                                                                                                                                                                     G01                                                                                                                                                                                                                                                                                                                                                                                                                                                                                                                                                                                                 
ZKFBC_MEX_RECEPTOR_DF000      400000000005451454700000700000602ACERO ESQ COBRE, 200                                             200                                                                                                                                                                                                          VILLAHERMOSA                                                     Tabasco                                                          México                                                           86010                                                                                                                                                                                                                                                                                                                                                                                                                                                                                                                                                  
ZKFBC_MEX_ITEM000             400000000005451454700000800000002   29010.000 KG                       5024265           HARINA TIPO 1 A GRANEL                                                                                                  0.00             0.00             000010                 KGM502213015024265                                                                                                                                                                                                                                                                                                                                                                                                                                                                                                                                                                                                                                                                                                                                                                             
ZKFBC_MEX_ITEM_AD000          400000000005451454700000900000803                                                                                         000010                                                                                                                                                                                                                                                                                                                                                                                                                                                                                                                                                                                                                                                                                                                                                                                                                                                                                                                                         
ZKFBC_MEX_ITEMEXT000          400000000005451454700001000000803LINE_ITEM_LEVEL_TEXT_Z601                                                                                                                                                                                                                                                                                                                                                                                                                                                                                                                                                                                                                                                                                                                                                      000010                                                                                                                                                                                                                                                   
ZKFBC_MEX_CABEXT000           400000000005451454700001100000002DOCNUM                                                                                                                                                                                                                                                     DL16116005288619                                                                                                                                                                                                                                                                                                                                                                                                                                                                                                                                                                                                                                                                                                                                                             
ZKFBC_MEX_CABEXT000           400000000005451454700001200000002REGIMENFISCAL                                                                                                                                                                                                                                              REGIMEN GENERAL DE LEY PERSONAS MORALES                                                                                                                                                                                                                                                                                                                                                                                                                                                                                                                                                                                                                                                                                                                                      
ZKFBC_MEX_CABEXT000           400000000005451454700001300000002SERIE                                                                                                                                                                                                                                                      TR                                                                                                                                                                                                                                                                                                                                                                                                                                                                                                                                                                                                                                                                                                                                                                           
ZKFBC_MEX_CABEXT000           400000000005451454700001400000002RECEPTOR_CALLE                                                                                                                                                                                                                                             ACERO ESQ. COBRE, 200                                                                                                                                                                                                                                                                                                                                                                                                                                                                                                                                                                                                                                                                                                                                                        
ZKFBC_MEX_CABEXT000           400000000005451454700001500000002BUNGE_ORDER_NUMBER                                                                                                                                                                                                                                         3032013                                                                                                                                                                                                                                                                                                                                                                                                                                                                                                                                                                                                                                                                                                                                                                      
ZKFBC_MEX_CABEXT000           400000000005451454700001600000002LOT_NUMBER                                                                                                                                                                                                                                                 N/A                                                                                                                                                                                                                                                                                                                                                                                                                                                                                                                                                                                                                                                                                                                                                                          
ZKFBC_MEX_CABEXT000           400000000005451454700001700000002EXPIRE_DATE                                                                                                                                                                                                                                                N/A                                                                                                                                                                                                                                                                                                                                                                                                                                                                                                                                                                                                                                                                                                                                                                          
ZKFBC_MEX_CABEXT000           400000000005451454700001800000002RAIL_CAR_NUMBER                                                                                                                                                                                                                                            N/A                                                                                                                                                                                                                                                                                                                                                                                                                                                                                                                                                                                                                                                                                                                                                                          
ZKFBC_MEX_CABEXT000           400000000005451454700001900000002CUSTOMER_PO_NUMBER                                                                                                                                                                                                                                         0003032013                                                                                                                                                                                                                                                                                                                                                                                                                                                                                                                                                                                                                                                                                                                                                                   
ZKFBC_MEX_CABEXT000           400000000005451454700002000000002PRICING_CONTRACT_NUMBER                                                                                                                                                                                                                                    0003032013                                                                                                                                                                                                                                                                                                                                                                                                                                                                                                                                                                                                                                                                                                                                                                   
ZKFBC_MEX_CABEXT000           400000000005451454700002100000002GROSSWEIGHT                                                                                                                                                                                                                                                29010.000                                                                                                                                                                                                                                                                                                                                                                                                                                                                                                                                                                                                                                                                                                                                                                    
ZKFBC_MEX_CABEXT000           400000000005451454700002200000002GROSSWEIGHT_UOM                                                                                                                                                                                                                                            KG                                                                                                                                                                                                                                                                                                                                                                                                                                                                                                                                                                                                                                                                                                                                                                           
ZKFBC_MEX_CABEXT000           400000000005451454700002300000002NETWEIGHT                                                                                                                                                                                                                                                  29010.000                                                                                                                                                                                                                                                                                                                                                                                                                                                                                                                                                                                                                                                                                                                                                                    
ZKFBC_MEX_CABEXT000           400000000005451454700002400000002NETWEIGHT_UOM                                                                                                                                                                                                                                              KG                                                                                                                                                                                                                                                                                                                                                                                                                                                                                                                                                                                                                                                                                                                                                                           
ZKFBC_MEX_CABEXT000           400000000005451454700002500000002SHIPTO-NUMBER                                                                                                                                                                                                                                              74085792                                                                                                                                                                                                                                                                                                                                                                                                                                                                                                                                                                                                                                                                                                                                                                     
ZKFBC_MEX_CABEXT000           400000000005451454700002600000002SHIPTO-NAME1                                                                                                                                                                                                                                               VILLAHERMOSA (01899 3310 2069)                                                                                                                                                                                                                                                                                                                                                                                                                                                                                                                                                                                                                                                                                                                                               
ZKFBC_MEX_CABEXT000           400000000005451454700002700000002SHIPTO-NAME2                                                                                                                                                                                                                                               BIMBO S.A. DE C.V.                                                                                                                                                                                                                                                                                                                                                                                                                                                                                                                                                                                                                                                                                                                                                           
ZKFBC_MEX_CABEXT000           400000000005451454700002800000002SHIPTO-NAME3                                                                                                                                                                                                                                                                                                                                                                                                                                                                                                                                                                                                                                                                                                                                                                                                                                                                                                                                                                                                                            
ZKFBC_MEX_CABEXT000           400000000005451454700002900000002SHIPTO-STREET                                                                                                                                                                                                                                              ACERO ESQ. COBRE, 200                                                                                                                                                                                                                                                                                                                                                                                                                                                                                                                                                                                                                                                                                                                                                        
ZKFBC_MEX_CABEXT000           400000000005451454700003000000002SHIPTO-HOUSE_NUM1                                                                                                                                                                                                                                          200                                                                                                                                                                                                                                                                                                                                                                                                                                                                                                                                                                                                                                                                                                                                                                          
ZKFBC_MEX_CABEXT000           400000000005451454700003100000002SHIPTO-HOUSE_NUM2                                                                                                                                                                                                                                                                                                                                                                                                                                                                                                                                                                                                                                                                                                                                                                                                                                                                                                                                                                                                                       
ZKFBC_MEX_CABEXT000           400000000005451454700003200000002SHIPTO-STR_SUPPL1                                                                                                                                                                                                                                                                                                                                                                                                                                                                                                                                                                                                                                                                                                                                                                                                                                                                                                                                                                                                                       
ZKFBC_MEX_CABEXT000           400000000005451454700003300000002SHIPTO-STR_SUPPL2                                                                                                                                                                                                                                                                                                                                                                                                                                                                                                                                                                                                                                                                                                                                                                                                                                                                                                                                                                                                                       
ZKFBC_MEX_CABEXT000           400000000005451454700003400000002SHIPTO-STR_SUPPL3                                                                                                                                                                                                                                                                                                                                                                                                                                                                                                                                                                                                                                                                                                                                                                                                                                                                                                                                                                                                                       
ZKFBC_MEX_CABEXT000           400000000005451454700003500000002SHIPTO-AD_LCTN                                                                                                                                                                                                                                                                                                                                                                                                                                                                                                                                                                                                                                                                                                                                                                                                                                                                                                                                                                                                                          
ZKFBC_MEX_CABEXT000           400000000005451454700003600000002SHIPTO-REGION_CODE                                                                                                                                                                                                                                         TA                                                                                                                                                                                                                                                                                                                                                                                                                                                                                                                                                                                                                                                                                                                                                                           
ZKFBC_MEX_CABEXT000           400000000005451454700003700000002SHIPTO-REGION_TEXT                                                                                                                                                                                                                                         Tabasco                                                                                                                                                                                                                                                                                                                                                                                                                                                                                                                                                                                                                                                                                                                                                                      
ZKFBC_MEX_CABEXT000           400000000005451454700003800000002SHIPTO_CITY1                                                                                                                                                                                                                                               VILLAHERMOSA                                                                                                                                                                                                                                                                                                                                                                                                                                                                                                                                                                                                                                                                                                                                                                 
ZKFBC_MEX_CABEXT000           400000000005451454700003900000002SHIPTO_CITY2                                                                                                                                                                                                                                                                                                                                                                                                                                                                                                                                                                                                                                                                                                                                                                                                                                                                                                                                                                                                                            
ZKFBC_MEX_CABEXT000           400000000005451454700004000000002SHIPTO-POST_CODE1                                                                                                                                                                                                                                          86010                                                                                                                                                                                                                                                                                                                                                                                                                                                                                                                                                                                                                                                                                                                                                                        
ZKFBC_MEX_CABEXT000           400000000005451454700004100000002SHIPTO-COUNTRY                                                                                                                                                                                                                                             MX                                                                                                                                                                                                                                                                                                                                                                                                                                                                                                                                                                                                                                                                                                                                                                           
ZKFBC_MEX_CABEXT000           400000000005451454700004200000002SHIPTO-LANDX                                                                                                                                                                                                                                               México                                                                                                                                                                                                                                                                                                                                                                                                                                                                                                                                                                                                                                                                                                                                                                       
ZKFBC_MEX_CABEXT000           400000000005451454700004300000002Emi_Email                                                                                                                                                                                                                                                  pilar.garcia@bunge.com                                                                                                                                                                                                                                                                                                                                                                                                                                                                                                                                                                                                                                                                                                                                                       
ZKFBC_MEX_CABEXT000           400000000005451454700004400000002REFERENCE_MAIL                                                                                                                                                                                                                                             pilar.garcia@bunge.com                                                                                                                                                                                                                                                                                                                                                                                                                                                                                                                                                                                                                                                                                                                                                       
ZKFBC_MEX_CABEXT000           400000000005451454700004500000002SITE                                                                                                                                                                                                                                                       N/A                                                                                                                                                                                                                                                                                                                                                                                                                                                                                                                                                                                                                                                                                                                                                                          
ZKFBC_MEX_CABEXT000           400000000005451454700004600000002SHIPPING_INSTRUCTION                                                                                                                                                                                                                                       Op: Antonio Sierra Cerón.|Folio: 40088.                                                                                                                                                                                                                                                                                                                                                                                                                                                                                                                                                                                                                                                                                                                                      
ZKFBC_MEX_CABEXT000           400000000005451454700004700000002NUM_FACTURA                                                                                                                                                                                                                                                N/A                                                                                                                                                                                                                                                                                                                                                                                                                                                                                                                                                                                                                                                                                                                                                                          
ZKFBC_MEX_CABEXT000           400000000005451454700004800000002PREFACTURA                                                                                                                                                                                                                                                 N/A                                                                                                                                                                                                                                                                                                                                                                                                                                                                                                                                                                                                                                                                                                                                                                          
ZKFBC_MEX_CABEXT000           400000000005451454700004900000002ITEM                                                                                                                                                                                                                                                       N/A                                                                                                                                                                                                                                                                                                                                                                                                                                                                                                                                                                                                                                                                                                                                                                          
ZKFBC_MEX_CABEXT000           400000000005451454700005000000002SUCURSAL                                                                                                                                                                                                                                                   N/A                                                                                                                                                                                                                                                                                                                                                                                                                                                                                                                                                                                                                                                                                                                                                                          
ZKFBC_MEX_CABEXT000           400000000005451454700005100000002SOLDTO-NUMBER                                                                                                                                                                                                                                              74085792                                                                                                                                                                                                                                                                                                                                                                                                                                                                                                                                                                                                                                                                                                                                                                     
ZKFBC_MEX_CABEXT000           400000000005451454700005200000002SOLDTO-NAME                                                                                                                                                                                                                                                BIMBO S.A DE C.V                                                                                                                                                                                                                                                                                                                                                                                                                                                                                                                                                                                                                                                                                                                                                             
ZKFBC_MEX_CABEXT000           400000000005451454700005300000002SOLDTO-NAME1                                                                                                                                                                                                                                               BIMBO S.A DE C.V                                                                                                                                                                                                                                                                                                                                                                                                                                                                                                                                                                                                                                                                                                                                                             
ZKFBC_MEX_CABEXT000           400000000005451454700005400000002SOLDTO-NAME2                                                                                                                                                                                                                                                                                                                                                                                                                                                                                                                                                                                                                                                                                                                                                                                                                                                                                                                                                                                                                            
ZKFBC_MEX_CABEXT000           400000000005451454700005500000002SOLDTO-NAME3                                                                                                                                                                                                                                                                                                                                                                                                                                                                                                                                                                                                                                                                                                                                                                                                                                                                                                                                                                                                                            
ZKFBC_MEX_CABEXT000           400000000005451454700005600000002SOLDTO-STREET                                                                                                                                                                                                                                              MIMOSAS                                                                                                                                                                                                                                                                                                                                                                                                                                                                                                                                                                                                                                                                                                                                                                      
ZKFBC_MEX_CABEXT000           400000000005451454700005700000002SOLDTO-HOUSE_NUM1                                                                                                                                                                                                                                          117                                                                                                                                                                                                                                                                                                                                                                                                                                                                                                                                                                                                                                                                                                                                                                          
ZKFBC_MEX_CABEXT000           400000000005451454700005800000002SOLDTO-STR_SUPPL1                                                                                                                                                                                                                                                                                                                                                                                                                                                                                                                                                                                                                                                                                                                                                                                                                                                                                                                                                                                                                       
ZKFBC_MEX_CABEXT000           400000000005451454700005900000002SOLDTO-STR_SUPPL2                                                                                                                                                                                                                                                                                                                                                                                                                                                                                                                                                                                                                                                                                                                                                                                                                                                                                                                                                                                                                       
ZKFBC_MEX_CABEXT000           400000000005451454700006000000002SOLDTO-STR_SUPPL3                                                                                                                                                                                                                                          SANTA MARIA INSURGENTES                                                                                                                                                                                                                                                                                                                                                                                                                                                                                                                                                                                                                                                                                                                                                      
ZKFBC_MEX_CABEXT000           400000000005451454700006100000002SOLDTO_CITY2                                                                                                                                                                                                                                                                                                                                                                                                                                                                                                                                                                                                                                                                                                                                                                                                                                                                                                                                                                                                                            
ZKFBC_MEX_CABEXT000           400000000005451454700006200000002SOLDTO_LOCATION                                                                                                                                                                                                                                                                                                                                                                                                                                                                                                                                                                                                                                                                                                                                                                                                                                                                                                                                                                                                                         
ZKFBC_MEX_CABEXT000           400000000005451454700006300000002SOLDTO-REGION_CODE                                                                                                                                                                                                                                         DF                                                                                                                                                                                                                                                                                                                                                                                                                                                                                                                                                                                                                                                                                                                                                                           
ZKFBC_MEX_CABEXT000           400000000005451454700006400000002SOLDTO-REGION_TEXT                                                                                                                                                                                                                                         Ciudad de Mexico                                                                                                                                                                                                                                                                                                                                                                                                                                                                                                                                                                                                                                                                                                                                                             
ZKFBC_MEX_CABEXT000           400000000005451454700006500000002SOLDTO_CITY1                                                                                                                                                                                                                                               CUAUHTEMOC                                                                                                                                                                                                                                                                                                                                                                                                                                                                                                                                                                                                                                                                                                                                                                   
ZKFBC_MEX_CABEXT000           400000000005451454700006600000002SOLDTO-POST_CODE1                                                                                                                                                                                                                                          06430                                                                                                                                                                                                                                                                                                                                                                                                                                                                                                                                                                                                                                                                                                                                                                        
ZKFBC_MEX_CABEXT000           400000000005451454700006700000002SOLDTO-COUNTRY                                                                                                                                                                                                                                             MX                                                                                                                                                                                                                                                                                                                                                                                                                                                                                                                                                                                                                                                                                                                                                                           
ZKFBC_MEX_CABEXT000           400000000005451454700006800000002SOLDTO-LANDX                                                                                                                                                                                                                                               México                                                                                                                                                                                                                                                                                                                                                                                                                                                                                                                                                                                                                                                                                                                                                                       
ZKFBC_MEX_CABEXT000           400000000005451454700006900000002SEAL_NUMBER                                                                                                                                                                                                                                                197504-197509                                                                                                                                                                                                                                                                                                                                                                                                                                                                                                                                                                                                                                                                                                                                                                
ZKFBC_MEX_CABEXT000           400000000005451454700007000000002TIPO_DOCUMENTO                                                                                                                                                                                                                                             LF                                                                                                                                                                                                                                                                                                                                                                                                                                                                                                                                                                                                                                                                                                                                                                           
ZKFBC_MEX_CABEXT000           400000000005451454700007100000002TIPO_DOCUMENTO_DESCRIPCION                                                                                                                                                                                                                                 TRASLADO                                                                                                                                                                                                                                                                                                                                                                                                                                                                                                                                                                                                                                                                                                                                                                     
ZKFBC_MEX_CABEXT000           400000000005451454700007200000002SOURCE                                                                                                                                                                                                                                                     DL                                                                                                                                                                                                                                                                                                                                                                                                                                                                                                                                                                                                                                                                                                                                                                           
ZKFBC_MEX_CABEXT000           400000000005451454700007300000002T_EMISSOR_DF-ESTADO                                                                                                                                                                                                                                        Ciudad de Mexico                                                                                                                                                                                                                                                                                                                                                                                                                                                                                                                                                                                                                                                                                                                                                             
ZKFBC_MEX_CABEXT000           400000000005451454700007400000002T_EMISSOR_DF-PAIS                                                                                                                                                                                                                                          México                                                                                                                                                                                                                                                                                                                                                                                                                                                                                                                                                                                                                                                                                                                                                                       
ZKFBC_MEX_CABEXT000           400000000005451454700007500000002T_EMISSOR_DF-MUNICIPIO                                                                                                                                                                                                                                     DELEG.ALVARO OBREGON                                                                                                                                                                                                                                                                                                                                                                                                                                                                                                                                                                                                                                                                                                                                                         
ZKFBC_MEX_CABEXT000           400000000005451454700007600000002T_EMISSOR_DF-LOCALIDAD                                                                                                                                                                                                                                     MEXICO,D.F                                                                                                                                                                                                                                                                                                                                                                                                                                                                                                                                                                                                                                                                                                                                                                   
ZKFBC_MEX_CABEXT000           400000000005451454700007700000002T_EMISSOR_DF-CODIGOPOSTAL                                                                                                                                                                                                                                  01210                                                                                                                                                                                                                                                                                                                                                                                                                                                                                                                                                                                                                                                                                                                                                                        
ZKFBC_MEX_CABEXT000           400000000005451454700007800000002T_EMISSOR_DF-CALLE                                                                                                                                                                                                                                         ALFONSO NAPOLES GANDARA 50 PISO 3                                                                                                                                                                                                                                                                                                                                                                                                                                                                                                                                                                                                                                                                                                                                            
ZKFBC_MEX_CABEXT000           400000000005451454700007900000002T_EMISSOR_DF-COLONIA                                                                                                                                                                                                                                       COL. SANTA FE PEÑA BLANCA                                                                                                                                                                                                                                                                                                                                                                                                                                                                                                                                                                                                                                                                                                                                                    
ZKFBC_MEX_CABEXT000           400000000005451454700008000000002T_EMISSOR_EX-ESTADO                                                                                                                                                                                                                                        Veracruz                                                                                                                                                                                                                                                                                                                                                                                                                                                                                                                                                                                                                                                                                                                                                                     
ZKFBC_MEX_CABEXT000           400000000005451454700008100000002T_EMISSOR_EX-PAIS                                                                                                                                                                                                                                          México                                                                                                                                                                                                                                                                                                                                                                                                                                                                                                                                                                                                                                                                                                                                                                       
ZKFBC_MEX_CABEXT000           400000000005451454700008200000002T_EMISSOR_EX-MUNICIPIO                                                                                                                                                                                                                                     Colonia Centro                                                                                                                                                                                                                                                                                                                                                                                                                                                                                                                                                                                                                                                                                                                                                               
ZKFBC_MEX_CABEXT000           400000000005451454700008300000002T_EMISSOR_EX-LOCALIDAD                                                                                                                                                                                                                                                                                                                                                                                                                                                                                                                                                                                                                                                                                                                                                                                                                                                                                                                                                                                                                  
ZKFBC_MEX_CABEXT000           400000000005451454700008400000002T_EMISSOR_EX-CODIGOPOSTAL                                                                                                                                                                                                                                  91700                                                                                                                                                                                                                                                                                                                                                                                                                                                                                                                                                                                                                                                                                                                                                                        
ZKFBC_MEX_CABEXT000           400000000005451454700008500000002T_EMISSOR_EX-CALLE                                                                                                                                                                                                                                         Calle Mariano Arista no.1625                                                                                                                                                                                                                                                                                                                                                                                                                                                                                                                                                                                                                                                                                                                                                 
ZKFBC_MEX_CABEXT000           400000000005451454700008600000002T_EMISSOR_EX-COLONIA                                                                                                                                                                                                                                       VERACRUZ                                                                                                                                                                                                                                                                                                                                                                                                                                                                                                                                                                                                                                                                                                                                                                     
ZKFBC_MEX_CABEXT000           400000000005451454700008700000002T_RECEPTOR_DF-CALLE                                                                                                                                                                                                                                        ACERO ESQ COBRE, 200                                                                                                                                                                                                                                                                                                                                                                                                                                                                                                                                                                                                                                                                                                                                                         
ZKFBC_MEX_CABEXT000           400000000005451454700008800000002T_RECEPTOR_DF-ESTADO                                                                                                                                                                                                                                       Tabasco                                                                                                                                                                                                                                                                                                                                                                                                                                                                                                                                                                                                                                                                                                                                                                      
ZKFBC_MEX_CABEXT000           400000000005451454700008900000002T_RECEPTOR_DF-PAIS                                                                                                                                                                                                                                         México                                                                                                                                                                                                                                                                                                                                                                                                                                                                                                                                                                                                                                                                                                                                                                       
ZKFBC_MEX_CABEXT000           400000000005451454700009000000002T_RECEPTOR_DF-LOCALIDAD                                                                                                                                                                                                                                                                                                                                                                                                                                                                                                                                                                                                                                                                                                                                                                                                                                                                                                                                                                                                                 
ZKFBC_MEX_CABEXT000           400000000005451454700009100000002T_RECEPTOR_DF-MUNICIPIO                                                                                                                                                                                                                                    VILLAHERMOSA                                                                                                                                                                                                                                                                                                                                                                                                                                                                                                                                                                                                                                                                                                                                                                 
ZKFBC_MEX_CABEXT000           400000000005451454700009200000002T_RECEPTOR_DF-CODIGOPOSTAL                                                                                                                                                                                                                                 86010                                                                                                                                                                                                                                                                                                                                                                                                                                                                                                                                                                                                                                                                                                                                                                        
