EDI_DC40  1000000000139003359700 3012  ZKFBC_MX_INVOICE                                            ZKFBC_MX_OUT                                     SAPKFQ    LS  TST100                                                                                               KFBCTF0001LS  TFCLIENT                                                                                             20180110235544                                                                                                                20171130235541      
ZKFBC_MEX_HEADER000           1000000000139003359000001000000010000000001262019-03-28T10:14:4199                                                                                                                              457138.08                                          MXN457138.08        I       PPD                                                             SDKLMX0087954614                                                                                                                            21190                                                                                                                   No Aplica                                                                                                                                                                               3.3  16                                                                                                                                                                                                                                                       
ZKFBC_MEX_EMISSOR000          100000000013900335900000200000001BTM060817960        Kellogg de Mexico, S de RL de CV                                                                                                                                                                                                                                                                                                                                                                                                                                                                                                                                                                                                                                                                                                                                                                                                                                                                                                                                                                                    
ZKFBC_MEX_EMISSOR_DF000       100000000013900335900000300000202Km. 1 Carretera Campo Militar                                    S/N                                               Col. San Antonio de la Punta                                     Queretaro                                                                                 Queretaro                                                        QRO                                                              MX                                                               76135                                                                                                                                                                                                                                                                                                                                                                                                                                                                                                                                                  
ZKFBC_MEX_EMISSOR_EX000       100000000013900335900000400000202                                                                                                                   .                                                                Mexicali                                                         Col Colorado 2           Mexicali                                                         BC                                                               MX                                                               21190                                                                                                                                                                                                                                                                                                                                                                                                                                                                                                                                                  
ZKFBC_MEX_REGIMENFISCAL000    100000000013900335900000500000202601                                                                                                                                                                                                                                                                                                                                                                                                                                                                                                                                                                                                                                                                                                                                                                                                                                                                                                                                                                                                                                     
ZKFBC_MEX_RECEPTOR000         100000000013900335900000600000001XEXX010101000       KELLOGG CANADA INC                                                                                                                                                                                                                                                                                                                                                                                              G01CAN                                                                                                                                                                                                                                                                                                                                                                                                                                                                                                                                                                                              
ZKFBC_MEX_RECEPTOR_DF000      100000000013900335900000700000602Creekbank Road                                                   5350                                                                                                                                                                                                         Mississauga                                                      ON                                                               CA                                                               L4W 5S1                                                                                                                                                                                                                                                                                                                                                                                                                                                                                                                                                
ZKFBC_MEX_ITEM000             1000000000139003359000008000000023024.000     CS                       64100589919       Cereal Special K Vainilla Almendras: Hojuelas de arroz y trigo con almendras (SPK VAN ALM CRL 355GMX10)                          151.170 457138.08        000010                 H8750221200                                                                                                                                                                                                                                                                                                                                                                                                                                                                                                                                                                                                                                                                                                                                                                                    
ZKFBC_MEX_ITEMEXT000          100000000013900335900000900000803DetExtAFN_01                                                                                                                                                                                                                                               MX                                                                                                                                                                                                                                                                                                                                                                                                                                                                                                                  000010                                                                                                                                                                                                                                                   
ZKFBC_MEX_ITEMEXT000          100000000013900335900001000000803DetExtAFN_08                                                                                                                                                                                                                                               3,024,000                                                                                                                                                                                                                                                                                                                                                                                                                                                                                                           000010                                                                                                                                                                                                                                                   
ZKFBC_MEX_ITEMEXT000          100000000013900335900001100000803DetExtAFN_11                                                                                                                                                                                                                                                                                                                                                                                                                                                                                                                                                                                                                                                                                                                                                                   000010                                                                                                                                                                                                                                                   
ZKFBC_MEX_ITEMEXT000          100000000013900335900001200000803DetExtAFN_21                                                                                                                                                                                                                                               64100916685                                                                                                                                                                                                                                                                                                                                                                                                                                                                                                         000010                                                                                                                                                                                                                                                   
ZKFBC_MEX_ITEMEXT000          100000000013900335900001300000803DetExtAFN_22                                                                                                                                                                                                                                               6410091668                                                                                                                                                                                                                                                                                                                                                                                                                                                                                                          000010                                                                                                                                                                                                                                                   
ZKFBC_MEX_ITEMEXT000          100000000013900335900001400000803DetExtAFN_31                                                                                                                                                                                                                                               CS                                                                                                                                                                                                                                                                                                                                                                                                                                                                                                                  000010                                                                                                                                                                                                                                                   
ZKFBC_MEX_ITEMEXT000          100000000013900335900001500000803DetExtAFN_30                                                                                                                                                                                                                                               64100589919                                                                                                                                                                                                                                                                                                                                                                                                                                                                                                         000010                                                                                                                                                                                                                                                   
ZKFBC_MEX_CABEXT000           100000000013900335900002400000002TIPOCOMPROBANTE                                                                                                                                                                                                                                            INGRESO                                                                                                                                                                                                                                                                                                                                                                                                                                                                                                                                                                                                                                                                                                                                                                      
ZKFBC_MEX_CABEXT000           100000000013900335900002500000002DOCNUM                                                                                                                                                                                                                                                     SDKLMX0087954614                                                                                                                                                                                                                                                                                                                                                                                                                                                                                                                                                                                                                                                                                                                                                             
ZKFBC_MEX_CABEXT000           100000000013900335900002600000002REGIMENFISCAL                                                                                                                                                                                                                                              GENERAL DE LEY PERSONAS MORALES                                                                                                                                                                                                                                                                                                                                                                                                                                                                                                                                                                                                                                                                                                                                              
ZKFBC_MEX_CABEXT000           100000000013900335900002700000002SERIE                                                                                                                                                                                                                                                      16                                                                                                                                                                                                                                                                                                                                                                                                                                                                                                                                                                                                                                                                                                                                                                           
ZKFBC_MEX_CABEXT000           100000000013900335900002800000002IEPS_TASA_1                                                                                                                                                                                                                                                0.00                                                                                                                                                                                                                                                                                                                                                                                                                                                                                                                                                                                                                                                                                                                                                                         
ZKFBC_MEX_CABEXT000           100000000013900335900002900000002IEPS_IMPORTE_1                                                                                                                                                                                                                                                                                                                                                                                                                                                                                                                                                                                                                                                                                                                                                            0.00                                                                                                                                                                                                                                                          
ZKFBC_MEX_CABEXT000           100000000013900335900003000000002Invoice_Type                                                                                                                                                                                                                                               Factura                                                                                                                                                                                                                                                                                                                                                                                                                                                                                                                                                                                                                                                                                                                                                                      
ZKFBC_MEX_CABEXT000           100000000013900335900003100000002Document                                                                                                                                                                                                                                                                                                                                                                                                                                                                                                                                                                                                                                                                                                                                                                                                                                                                                                                                                                                                                                
ZKFBC_MEX_CABEXT000           100000000013900335900003200000002Ship_Location                                                                                                                                                                                                                                                                                                                                                                                                                                                                                                                                                                                                                                                                                                                                                                                                                                                                                                                                                                                                                           
ZKFBC_MEX_CABEXT000           100000000013900335900003300000002Suc_Name                                                                                                                                                                                                                                                   Mexicali Shipping Plant                                                                                                                                                                                                                                                                                                                                                                                                                                                                                                                                                                                                                                                                                                                                                      
ZKFBC_MEX_CABEXT000           100000000013900335900003400000002Suc_Street                                                                                                                                                                                                                                                 Siderurgia 101                                                                                                                                                                                                                                                                                                                                                                                                                                                                                                                                                                                                                                                                                                                                                               
ZKFBC_MEX_CABEXT000           100000000013900335900003500000002Suc_Colony                                                                                                                                                                                                                                                 .                                                                                                                                                                                                                                                                                                                                                                                                                                                                                                                                                                                                                                                                                                                                                                            
ZKFBC_MEX_CABEXT000           100000000013900335900003600000002Suc_State                                                                                                                                                                                                                                                  BC                                                                                                                                                                                                                                                                                                                                                                                                                                                                                                                                                                                                                                                                                                                                                                           
ZKFBC_MEX_CABEXT000           100000000013900335900003700000002Suc_Country                                                                                                                                                                                                                                                Mexico                                                                                                                                                                                                                                                                                                                                                                                                                                                                                                                                                                                                                                                                                                                                                                       
ZKFBC_MEX_CABEXT000           100000000013900335900003800000002Cons_Code                                                                                                                                                                                                                                                  K1460                                                                                                                                                                                                                                                                                                                                                                                                                                                                                                                                                                                                                                                                                                                                                                        
ZKFBC_MEX_CABEXT000           100000000013900335900003900000002Cons_Name                                                                                                                                                                                                                                                  Kellogg Canada Inc. c/o Exel Logistics                                                                                                                                                                                                                                                                                                                                                                                                                                                                                                                                                                                                                                                                                                                                       
ZKFBC_MEX_CABEXT000           100000000013900335900004000000002Cons_Ad                                                                                                                                                                                                                                                    Kellogg Canada Inc.                                                                                                                                                                                                                                                                                                                                                                                                                                                                                                                                                                                                                                                                                                                                                          
ZKFBC_MEX_CABEXT000           100000000013900335900004100000002Cons_Ad                                                                                                                                                                                                                                                    c/o Exel Logistics                                                                                                                                                                                                                                                                                                                                                                                                                                                                                                                                                                                                                                                                                                                                                           
ZKFBC_MEX_CABEXT000           100000000013900335900004200000002Cons_Ad                                                                                                                                                                                                                                                     100 Sandalwood Parkway West                                                                                                                                                                                                                                                                                                                                                                                                                                                                                                                                                                                                                                                                                                                                                 
ZKFBC_MEX_CABEXT000           100000000013900335900004300000002Cons_City                                                                                                                                                                                                                                                  Brampton                                                                                                                                                                                                                                                                                                                                                                                                                                                                                                                                                                                                                                                                                                                                                                     
ZKFBC_MEX_CABEXT000           100000000013900335900004400000002Cons_ZIP                                                                                                                                                                                                                                                   L7A 1A8                                                                                                                                                                                                                                                                                                                                                                                                                                                                                                                                                                                                                                                                                                                                                                      
ZKFBC_MEX_CABEXT000           100000000013900335900004500000002Cons_State                                                                                                                                                                                                                                                 ON                                                                                                                                                                                                                                                                                                                                                                                                                                                                                                                                                                                                                                                                                                                                                                           
ZKFBC_MEX_CABEXT000           100000000013900335900004600000002Cons_Country                                                                                                                                                                                                                                               Canada                                                                                                                                                                                                                                                                                                                                                                                                                                                                                                                                                                                                                                                                                                                                                                       
ZKFBC_MEX_CABEXT000           100000000013900335900004700000002Cus_Number                                                                                                                                                                                                                                                 TCAN                                                                                                                                                                                                                                                                                                                                                                                                                                                                                                                                                                                                                                                                                                                                                                         
ZKFBC_MEX_CABEXT000           100000000013900335900004800000002Ship_Number                                                                                                                                                                                                                                                K1460                                                                                                                                                                                                                                                                                                                                                                                                                                                                                                                                                                                                                                                                                                                                                                        
ZKFBC_MEX_CABEXT000           100000000013900335900004900000002Cus_Order                                                                                                                                                                                                                                                  112000776LA                                                                                                                                                                                                                                                                                                                                                                                                                                                                                                                                                                                                                                                                                                                                                                  
ZKFBC_MEX_CABEXT000           100000000013900335900005000000002Ship_Name                                                                                                                                                                                                                                                  Kellogg Canada Inc. c/o Exel Logistics                                                                                                                                                                                                                                                                                                                                                                                                                                                                                                                                                                                                                                                                                                                                       
ZKFBC_MEX_CABEXT000           100000000013900335900005100000002Ship_Ad                                                                                                                                                                                                                                                    Sandalwood Parkway West  100                                                                                                                                                                                                                                                                                                                                                                                                                                                                                                                                                                                                                                                                                                                                                 
ZKFBC_MEX_CABEXT000           100000000013900335900005200000002Ship_Colonia                                                                                                                                                                                                                                                                                                                                                                                                                                                                                                                                                                                                                                                                                                                                                                                                                                                                                                                                                                                                                            
ZKFBC_MEX_CABEXT000           100000000013900335900005300000002Ship_City                                                                                                                                                                                                                                                  Brampton                                                                                                                                                                                                                                                                                                                                                                                                                                                                                                                                                                                                                                                                                                                                                                     
ZKFBC_MEX_CABEXT000           100000000013900335900005400000002Ship_ZIP                                                                                                                                                                                                                                                   L7A 1A8                                                                                                                                                                                                                                                                                                                                                                                                                                                                                                                                                                                                                                                                                                                                                                      
ZKFBC_MEX_CABEXT000           100000000013900335900005500000002Ship_State                                                                                                                                                                                                                                                 ON                                                                                                                                                                                                                                                                                                                                                                                                                                                                                                                                                                                                                                                                                                                                                                           
ZKFBC_MEX_CABEXT000           100000000013900335900005600000002Ship_Country                                                                                                                                                                                                                                               CA                                                                                                                                                                                                                                                                                                                                                                                                                                                                                                                                                                                                                                                                                                                                                                           
ZKFBC_MEX_CABEXT000           100000000013900335900005700000002BSTNK                                                                                                                                                                                                                                                      112000776LA                                                                                                                                                                                                                                                                                                                                                                                                                                                                                                                                                                                                                                                                                                                                                                  
ZKFBC_MEX_CABEXT000           100000000013900335900005800000002VDATU                                                                                                                                                                                                                                                      20171219                                                                                                                                                                                                                                                                                                                                                                                                                                                                                                                                                                                                                                                                                                                                                                     
ZKFBC_MEX_CABEXT000           100000000013900335900005900000002AUDAT                                                                                                                                                                                                                                                      20171120                                                                                                                                                                                                                                                                                                                                                                                                                                                                                                                                                                                                                                                                                                                                                                     
ZKFBC_MEX_CABEXT000           100000000013900335900006000000002Order_Number                                                                                                                                                                                                                                               0008298871                                                                                                                                                                                                                                                                                                                                                                                                                                                                                                                                                                                                                                                                                                                                                                   
ZKFBC_MEX_CABEXT000           100000000013900335900006100000002Order_Date                                                                                                                                                                                                                                                 20171120                                                                                                                                                                                                                                                                                                                                                                                                                                                                                                                                                                                                                                                                                                                                                                     
ZKFBC_MEX_CABEXT000           100000000013900335900006200000002Referencia                                                                                                                                                                                                                                                 112000776LA                                                                                                                                                                                                                                                                                                                                                                                                                                                                                                                                                                                                                                                                                                                                                                  
ZKFBC_MEX_CABEXT000           100000000013900335900006300000002Fecha_entrega                                                                                                                                                                                                                                              20171219                                                                                                                                                                                                                                                                                                                                                                                                                                                                                                                                                                                                                                                                                                                                                                     
ZKFBC_MEX_CABEXT000           100000000013900335900006400000002Embarcado                                                                                                                                                                                                                                                  TCAN                                                                                                                                                                                                                                                                                                                                                                                                                                                                                                                                                                                                                                                                                                                                                                         
ZKFBC_MEX_CABEXT000           100000000013900335900006500000002Deliv_Doc                                                                                                                                                                                                                                                  0068905648                                                                                                                                                                                                                                                                                                                                                                                                                                                                                                                                                                                                                                                                                                                                                                   
ZKFBC_MEX_CABEXT000           100000000013900335900006600000002Deliv_Date                                                                                                                                                                                                                                                 20171219                                                                                                                                                                                                                                                                                                                                                                                                                                                                                                                                                                                                                                                                                                                                                                     
ZKFBC_MEX_CABEXT000           100000000013900335900006700000002Emi_Order                                                                                                                                                                                                                                                  0008298871                                                                                                                                                                                                                                                                                                                                                                                                                                                                                                                                                                                                                                                                                                                                                                   
ZKFBC_MEX_CABEXT000           100000000013900335900006800000002Emi_Order_D                                                                                                                                                                                                                                                20171120                                                                                                                                                                                                                                                                                                                                                                                                                                                                                                                                                                                                                                                                                                                                                                     
ZKFBC_MEX_CABEXT000           100000000013900335900006900000002Ship_Number_ID                                                                                                                                                                                                                                             0000909735                                                                                                                                                                                                                                                                                                                                                                                                                                                                                                                                                                                                                                                                                                                                                                   
ZKFBC_MEX_CABEXT000           100000000013900335900007000000002Trailer                                                                                                                                                                                                                                                    XPOU412126                                                                                                                                                                                                                                                                                                                                                                                                                                                                                                                                                                                                                                                                                                                                                                   
ZKFBC_MEX_CABEXT000           100000000013900335900007100000002Sello                                                                                                                                                                                                                                                      384773                                                                                                                                                                                                                                                                                                                                                                                                                                                                                                                                                                                                                                                                                                                                                                       
ZKFBC_MEX_CABEXT000           100000000013900335900007200000002FWD_Agent                                                                                                                                                                                                                                                  XPO INTERMODAL SOLUTIONS INC                                                                                                                                                                                                                                                                                                                                                                                                                                                                                                                                                                                                                                                                                                                                                 
ZKFBC_MEX_CABEXT000           100000000013900335900007300000002Incoterm                                                                                                                                                                                                                                                   FCA                                                                                                                                                                                                                                                                                                                                                                                                                                                                                                                                                                                                                                                                                                                                                                          
ZKFBC_MEX_CABEXT000           100000000013900335900007400000002Transp_Mode                                                                                                                                                                                                                                                FCA                                                                                                                                                                                                                                                                                                                                                                                                                                                                                                                                                                                                                                                                                                                                                                          
ZKFBC_MEX_CABEXT000           100000000013900335900007500000002Territorio                                                                                                                                                                                                                                                                                                                                                                                                                                                                                                                                                                                                                                                                                                                                                                                                                                                                                                                                                                                                                              
ZKFBC_MEX_CABEXT000           100000000013900335900007600000002FKDAT                                                                                                                                                                                                                                                      20171129                                                                                                                                                                                                                                                                                                                                                                                                                                                                                                                                                                                                                                                                                                                                                                     
ZKFBC_MEX_CABEXT000           100000000013900335900007700000002VSTEL                                                                                                                                                                                                                                                      4205                                                                                                                                                                                                                                                                                                                                                                                                                                                                                                                                                                                                                                                                                                                                                                         
ZKFBC_MEX_CABEXT000           100000000013900335900007800000002Articulos                                                                                                                                                                                                                                                                                                                                                                                                                                                                                                                                                                                                                                                                                                                                                                 3024                                                                                                                                                                                                                                                          
ZKFBC_MEX_CABEXT000           100000000013900335900007900000002Cubicaje                                                                                                                                                                                                                                                   90.684                                                                                                                                                                                                                                                                                                                                                                                                                                                                                                                                                                                                                                                                                                                                                                       
ZKFBC_MEX_CABEXT000           100000000013900335900008000000002NTGEW                                                                                                                                                                                                                                                      10731.894                                                                                                                                                                                                                                                                                                                                                                                                                                                                                                                                                                                                                                                                                                                                                                    
ZKFBC_MEX_CABEXT000           100000000013900335900008100000002BRGEW                                                                                                                                                                                                                                                      15240.551                                                                                                                                                                                                                                                                                                                                                                                                                                                                                                                                                                                                                                                                                                                                                                    
ZKFBC_MEX_CABEXT000           100000000013900335900008200000002Cond_Pagto                                                                                                                                                                                                                                                 Contado Inmediato                                                                                                                                                                                                                                                                                                                                                                                                                                                                                                                                                                                                                                                                                                                                                            
ZKFBC_MEX_CABEXT000           100000000013900335900008300000002Pagto_Ddate                                                                                                                                                                                                                                                20171129                                                                                                                                                                                                                                                                                                                                                                                                                                                                                                                                                                                                                                                                                                                                                                     
ZKFBC_MEX_CABEXT000           100000000013900335900008400000002METODO_SAT                                                                                                                                                                                                                                                 Transferencia electrónica de fondos                                                                                                                                                                                                                                                                                                                                                                                                                                                                                                                                                                                                                                                                                                                                          
ZKFBC_MEX_CABEXT000           100000000013900335900008500000002FORMA_PAGO_DESC                                                                                                                                                                                                                                            POR DEFINIR                                                                                                                                                                                                                                                                                                                                                                                                                                                                                                                                                                                                                                                                                                                                                                  
ZKFBC_MEX_CABEXT000           100000000013900335900008600000002METODO_PAGO_DESC                                                                                                                                                                                                                                           PAGO EN PARCIALIDADES O DIFERIDO                                                                                                                                                                                                                                                                                                                                                                                                                                                                                                                                                                                                                                                                                                                                             
ZKFBC_MEX_CABEXT000           100000000013900335900008700000002Referencia_Interna                                                                                                                                                                                                                                         0087954614                                                                                                                                                                                                                                                                                                                                                                                                                                                                                                                                                                                                                                                                                                                                                                   
ZKFBC_MEX_CABEXT000           100000000013900335900008800000002T_EMISSOR_DF-ESTADO                                                                                                                                                                                                                                        QRO                                                                                                                                                                                                                                                                                                                                                                                                                                                                                                                                                                                                                                                                                                                                                                          
ZKFBC_MEX_CABEXT000           100000000013900335900008900000002T_EMISSOR_DF-PAIS                                                                                                                                                                                                                                          MX                                                                                                                                                                                                                                                                                                                                                                                                                                                                                                                                                                                                                                                                                                                                                                           
ZKFBC_MEX_CABEXT000           100000000013900335900009000000002T_EMISSOR_DF-MUNICIPIO                                                                                                                                                                                                                                     Queretaro                                                                                                                                                                                                                                                                                                                                                                                                                                                                                                                                                                                                                                                                                                                                                                    
ZKFBC_MEX_CABEXT000           100000000013900335900009100000002T_EMISSOR_DF-LOCALIDAD                                                                                                                                                                                                                                     Queretaro                                                                                                                                                                                                                                                                                                                                                                                                                                                                                                                                                                                                                                                                                                                                                                    
ZKFBC_MEX_CABEXT000           100000000013900335900009200000002T_EMISSOR_DF-CODIGOPOSTAL                                                                                                                                                                                                                                  76135                                                                                                                                                                                                                                                                                                                                                                                                                                                                                                                                                                                                                                                                                                                                                                        
ZKFBC_MEX_CABEXT000           100000000013900335900009300000002T_EMISSOR_EX-ESTADO                                                                                                                                                                                                                                        BC                                                                                                                                                                                                                                                                                                                                                                                                                                                                                                                                                                                                                                                                                                                                                                           
ZKFBC_MEX_CABEXT000           100000000013900335900009400000002T_EMISSOR_EX-PAIS                                                                                                                                                                                                                                          MX                                                                                                                                                                                                                                                                                                                                                                                                                                                                                                                                                                                                                                                                                                                                                                           
ZKFBC_MEX_CABEXT000           100000000013900335900009500000002T_EMISSOR_EX-MUNICIPIO                                                                                                                                                                                                                                     Mexicali                                                                                                                                                                                                                                                                                                                                                                                                                                                                                                                                                                                                                                                                                                                                                                     
ZKFBC_MEX_CABEXT000           100000000013900335900009600000002T_EMISSOR_EX-LOCALIDAD                                                                                                                                                                                                                                     Mexicali                                                                                                                                                                                                                                                                                                                                                                                                                                                                                                                                                                                                                                                                                                                                                                     
ZKFBC_MEX_CABEXT000           100000000013900335900009700000002T_EMISSOR_EX-CODIGOPOSTAL                                                                                                                                                                                                                                  21190                                                                                                                                                                                                                                                                                                                                                                                                                                                                                                                                                                                                                                                                                                                                                                        
ZKFBC_MEX_CABEXT000           100000000013900335900009800000002T_RECEPTOR_DF-ESTADO                                                                                                                                                                                                                                       ON                                                                                                                                                                                                                                                                                                                                                                                                                                                                                                                                                                                                                                                                                                                                                                           
ZKFBC_MEX_CABEXT000           100000000013900335900009900000002T_RECEPTOR_DF-PAIS                                                                                                                                                                                                                                         CA                                                                                                                                                                                                                                                                                                                                                                                                                                                                                                                                                                                                                                                                                                                                                                           
ZKFBC_MEX_CABEXT000           100000000013900335900010000000002T_RECEPTOR_DF-LOCALIDAD                                                                                                                                                                                                                                                                                                                                                                                                                                                                                                                                                                                                                                                                                                                                                                                                                                                                                                                                                                                                                 
ZKFBC_MEX_CABEXT000           100000000013900335900010100000002T_RECEPTOR_DF-MUNICIPIO                                                                                                                                                                                                                                    Mississauga                                                                                                                                                                                                                                                                                                                                                                                                                                                                                                                                                                                                                                                                                                                                                                  
